:020000040800F2
:10000000A806002001010008530E0008750D000825
:10001000510E00086D010008511100080000000099
:100020000000000000000000000000002D0F00088C
:100030006F01000800000000750E00082F0F000877
:100040001B0100081B0100081B0100081B01000820
:100050001B0100081B0100081B0100081B01000810
:100060001B0100081B0100081B0100081B01000800
:100070001B0100081B0100081B0100081B010008F0
:100080001B0100081B0100081B0100081B010008E0
:100090001B0100081B0100081B0100081B010008D0
:1000A0001B0100081B0100081B0100081B010008C0
:1000B0001B0100081B0100081B0100081B010008B0
:1000C0001B0100081B0100081B0100081B010008A0
:1000D0001B0100081B0100081B0100081B01000890
:1000E0001B0100081B0100081B010008DFF80CD0F1
:1000F00000F02AF80048004781120008A8060020F6
:100100000648804706480047FEE7FEE7FEE7FEE7B1
:10011000FEE7FEE7FEE7FEE7FEE7FEE7990F0008D1
:10012000ED00000840EA01039B0703D009E008C97D
:10013000121F08C0042AFAD203E011F8013B00F8AC
:10014000013B521EF9D27047064C074D06E0E068AD
:1001500040F0010394E8070098471034AC42F6D30E
:10016000FFF7C8FFF8190008181A0008FEE77047E3
:1001700031B500F0F3F8009C0546601C00D0641C0B
:1001800000F0ECF8401BA042FAD338BD2DE9F84F3F
:10019000DFF890A100220AF1040B144601274FF06A
:1001A0000F090BF1040E00BF0B6807FA04F52B4092
:1001B000AB4274D1DFF870C14E68A6EB0C086645FF
:1001C0002BD00DDC032E34D005DC36B3012E19D034
:1001D000022E2FD11BE0112E16D0122E2AD119E09B
:1001E000B8F5881F19D006DCB8F5803F15D0B8F5F2
:1001F000801F1FD111E0B8F5001F0ED0B8F5041F05
:1002000018D10AE0CA6815E0CA68121D12E0CA686F
:1002100008320FE0CA680C320CE08A682AB1012A61
:100220004FF0080203D0456104E0042202E00561BA
:1002300000E00022FF2B01D8064601E000F1040691
:100240004FEA840501D9A5F12005D6F800C009FAC6
:1002500005F82CEA080C02FA05F54CEA050CC6F87C
:1002600000C04D68ED0057D5304DAE6946F001062F
:10027000AE61AD6924F0030605F0010500952C4D33
:1002800006EB050CDCF80850A6074FEA167809FAC9
:1002900008F6B543274EB04202D1002610E03BE0FD
:1002A000254EB04201D101260AE0244EB04201D1D0
:1002B000022605E0224EB04201D1032600E00426CA
:1002C00006FA08F62E43CCF808604D68DAF80060AC
:1002D000ED03554601D51E4300E09E432E604D6858
:1002E000DBF80060AD035D4601D51E4300E09E4390
:1002F0002E604D68DEF80060ED02754601D51E43A4
:1003000000E09E432E604D68AD020E4D2E6801D573
:100310001E4300E09E432E60641C102CFFF444AF8B
:10032000BDE8F88F000401400000111000100240E9
:100330000000014000080140000C01400010014095
:10034000001401400C040140C2684A40C26070477A
:100350000AB1016170470904FBE700000148006829
:10036000704700000000002002480168491C01603D
:100370007047000000000020074810B5016841F0F8
:1003800010010160032000F07FF8002000F006F863
:1003900000F018F8002010BD0020024010B50446FF
:1003A00007484FF47A710068B0FBF1F000F06DFC83
:1003B00000222146501E00F047F8002010BD00002A
:1003C000040000201E4808B5816941F001018161E7
:1003D000806900F001000090032000F055F8002231
:1003E00011466FF00B0000F02FF8002211466FF05D
:1003F0000A0000F029F8002211466FF0090000F011
:1004000023F800221146501F00F01EF8002211466A
:10041000101F00F019F800221146901E00F014F889
:1004200000221146501E00F00FF80648416821F0E6
:10043000E0614160416841F00071416008BD000029
:100440000010024000000140F0B40E4B1B680C4647
:10045000C3F30223C3F10705042D00D90425191D98
:10046000072901D2002300E0DB1E012606FA05F170
:10047000491E214099409E40761E16403143F0BCF3
:1004800000F0E8BC0CED00E0064900F00702086847
:100490004FF6FF03184040EA0220034A1043086069
:1004A000704700000CED00E00000FA052DE9F04770
:1004B000DFF83C8105460E46D8F8000000F0070042
:1004C000B0420CD2D8F8001021F007013143C8F82F
:1004D0000010D8F8000000F00700B04263D128787F
:1004E000444C800705D56068A96820F0F0000843F7
:1004F00060602878C00745D06868012816D0216858
:10050000022816D0890700294DDA616821F003011D
:1005100001436160FFF722FF6968074641F28830B6
:1005200001290FD00229814619D027E021688903CB
:10053000E9E78901E7E700BFFFF710FFC11B494565
:1005400001D918E081466068C0F381000128F3D129
:1005500018E000BFFFF702FFC11B49450BD86068D8
:10056000C0F381000228F5D10CE000BFFFF7F6FED2
:10057000C11B494502D90320BDE8F087606810F02F
:100580000C0FF3D1D8F80010404601F00701B1423A
:100590000BD9016821F0070131430160006800F0C8
:1005A0000700B04201D00120E6E72878400705D5D2
:1005B0006068E96820F4E06008436060287800071C
:1005C00006D56068296920F4605040EAC100606087
:1005D00000F03CF86168084AC1F30311515CC8405F
:1005E000064908600020FFF7D9FE0020C4E700009C
:1005F0000020024000100240E01900080400002022
:1006000001480068704700000400002004480549C4
:1006100000684968044AC1F30221515CC840704730
:100620000400002000100240F019000804480549A9
:1006300000684968044AC1F3C221515CC840704750
:100640000400002000100240F019000810B512A3A9
:1006500085B00FCB8DE80F0013A0144B00680490F9
:100660005A68134802F00C0104290FD008290DD153
:10067000C2F38344D2031DF8041009D55A6804ABB1
:10068000C2F340429A5CB0FBF2F0484305B010BDA3
:1006900008484843FAE70000020304050607080972
:1006A0000A0B0C0D0E0F101001020000001002408A
:1006B00000127A0000093D002DE9F84F0446007849
:1006C000B94DC00748D06868C0F38100012807D041
:1006D0006868C0F38100022809D16868C00306D5A4
:1006E0002868800338D5606800286FD034E06068DF
:1006F000B0F5803F0BD010B1B0F5A02F11D0286815
:1007000020F480302860286820F4802002E02868E7
:1007100040F480302860606888B1FFF71FFE06460D
:1007200009E0286840F480202860F0E7FFF716FE13
:10073000801B642875D828688003F7D50CE0FFF784
:100740000DFE064605E000BFFFF708FE801B64288B
:10075000F0D828688003F7D42078944E80074FF0B3
:1007600001094FF000083BD5686810F00C0F07D066
:100770006868C0F38100022809D16868C00306D404
:100780002868800714D5206901281FD110E020694E
:10079000B0B1C6F80090FFF7E1FD074605E000BFE5
:1007A000FFF7DCFDC01B0228C4D828688007F7D5F6
:1007B0002868616920F0F80040EAC10028600FE075
:1007C000C6F80080FFF7CAFD074606E0E9E000BF73
:1007D000FFF7C4FDC01B022823D828688007F7D480
:1007E000207800072CD57248A169D9B1C0F80090D3
:1007F000FFF7B4FD074604E0FFF7B0FDC01B022879
:100800000FD8686A8007F7D56A484FF4FA51006834
:10081000B0FBF1F0009000BF0098411E0091FAD2A9
:100820000EE080E0C0F80080FFF798FD074604E086
:10083000FFF794FDC01B022875D8686A8007F7D4BB
:100840002078400760D5E8690027C00008D4E8692F
:1008500040F08050E861E869012700F08050009086
:1008600055480168C90513D40168834641F4807175
:100870000160FFF773FD824606E000BFFFF76EFDE3
:10088000A0EB0A0064284ED8DBF80000C005F5D5BF
:10089000E06801280AD008B1052813D0286A20F0A2
:1008A00001002862286A20F0040002E0286A40F073
:1008B00001002862E06841F2883B98B1FFF74EFDE5
:1008C00082460BE0286A40F004002862EEE700BF91
:1008D000FFF744FDA0EB0A0159455AD8286A800762
:1008E000F6D50CE0FFF73AFD824605E0FFF736FD4E
:1008F000A0EB0A0159454CD8286A8007F6D41FB1ED
:10090000E86920F08050E861E06988B36968C1F364
:100910008101022945D00228C6F8608004D0FFF783
:100920001DFD044638E034E0FFF718FD074604E0FB
:10093000FFF714FDC01B02282BD828688001F7D4CC
:10094000206AB0F5803F05D16868A16820F40030C6
:1009500008436860D4E908010843696821F4741108
:1009600008436860C6F86090FFF7F8FC044606E0AC
:1009700015E000BFFFF7F2FC001B022809D8286829
:100980008001F7D50BE000BFFFF7E8FC001B022851
:1009900002D90320BDE8F88F28688001F4D4002034
:1009A000F8E70120F6E70000001002400000424294
:1009B00080044242040000200070004070B5040032
:1009C00005D00025A56294F8510010B104E0012083
:1009D00070BD204600F034F8022084F851002068F1
:1009E000016821F040010160D4E901010843D4E924
:1009F00003121143084361690843218B01F400711C
:100A00000843E1690843216A0843A16A0843216851
:100A10000860A069042101EA1040616A0843216866
:100A200048602168E06A08612068C16921F40061BA
:100A3000C1616565012084F85100002070BD00008F
:100A400010B50068114986B088421CD110488169F0
:100A500041F48051816180690E4C00F48050049013
:100A6000B0200090022001900320039069462046A8
:100A7000FFF78CFB00214020CDE90001029169467F
:100A80002046FFF783FB06B010BD00000030014098
:100A900000100240000801402DE9F84F044690F88C
:100AA000500000260A9F9A4693460D464FF00108D3
:100AB00001280ED0012084F85000FFF74FFC81463A
:100AC00094F85100616801280CD0B1F5827F07D1FC
:100AD00002E00220BDE8F88FA16809B9042801D01E
:100AE0000226BDE055B1BBF1000F07D0BAF1000FEF
:100AF00004D094F85100012802D004E00126AFE0B0
:100B0000052084F8510000206065C4F838B0A4F8CE
:100B10003EA0A4F83CA02563A4F836A0A4F834A015
:100B20002064606420680168490603D4016841F0CC
:100B300040010160E068B0F5006F606804D0E8B380
:100B4000E08E01283BD06AE010B1E08E01282ED162
:100B5000216835F8020BC860E08E401EE08626E072
:100B6000B8F1000F0DD0E08E58B120688168890778
:100B700007D535F8021BC160E08E401EE0864FF0BD
:100B80000008E08F58B120688168C90707D0C068A5
:100B90002BF8020BE08F401EE0874FF00108781C15
:100BA00005D0FFF7DBFBA0EB0900B84246D2E08E90
:100BB0000028D5D1E08F0028D2D136E0FFE72168A8
:100BC00015F8010B0873E08E401EE08627E000BF99
:100BD000B8F1000F0DD0E08E58B120688168890708
:100BE00007D515F8011B0173E08E401EE0864FF01B
:100BF0000008E08F58B120688168C90707D0C06835
:100C00000BF8010BE08F401EE0874FF00108781CC5
:100C100005D0FFF7A3FBA0EB0900B8420ED2E08E8F
:100C20000028D5D1E08F0028D2D13B4601220221F5
:100C30002046CDF8009000F02EF908B103260FE011
:100C40004A463946204600F016F918B10126202000
:100C5000606505E0A06818B92068C16880680090E8
:100C6000012084F85100002084F85000304631E71C
:100C70004FF0E0210428086903D020F00400086147
:100C8000704740F00400FAE7704710B5401EB0F11D
:100C9000807F01D3012010BD4FF0E02460610F215F
:100CA000601700F0D7F80020A06107202061002025
:100CB00010BD10B5FFF7E8FF10BD70B5040004D0FB
:100CC00094F83900002510B106E0012070BD84F8C9
:100CD0003850204600F022F8242084F8390020689B
:100CE000C16821F40051C160204600F079F9206804
:100CF000016921F4904101612068416921F02A01D4
:100D000041612068C16841F40051C160E563202061
:100D100084F8390084F83A00002070BD10B50068EE
:100D2000114986B088421DD11048816941F4804143
:100D3000816180690E4C00F4804004904FF4007093
:100D40000090022001900320039069462046FFF79F
:100D50001DFA00212015CDE90001029169462046C7
:100D6000FFF714FA06B010BD003801400010024031
:100D700000080140FEE7000070B5224886B0816996
:100D800041F010018161816901F0100104918169D4
:100D900041F004018161816901F0040104918169DC
:100DA00041F0080181618069012200F00800164DC0
:100DB0005403049021462846FFF7CAFA134E002236
:100DC00008213046FFF7C4FA1120CDE90040022483
:100DD000694628460394FFF7D9F9042000900020C3
:100DE0000125CDE9010569463046FFF7CFF9082016
:100DF000CDE90005694603943046FFF7C7F906B010
:100E000070BD000000100240000C014000080140CD
:100E10000E4810B50C4901604FF482714160002109
:100E20008160C1604FF480220161C0E90512C16197
:100E30000162416281620A21C162FFF7BFFD0028A1
:100E400000D0FEE710BD000000300140100000207F
:100E5000FEE770470907090E002806DA00F00F00C8
:100E600000F1E02080F8141D704700F1E02080F8C8
:100E700000147047704738B50B46009204460022B4
:100E8000802100F008F8002804D0606D40F02000B8
:100E90006065032038BD2DE9F0411D4617460E461A
:100EA0000446DDF8188035E0681C33D02DB1FFF71B
:100EB00055FAA0EB0800A8422CD32068416821F025
:100EC000E00141606068B0F5827F0BD1A068B0F5A9
:100ED000004F02D0B0F5806F04D12068016821F086
:100EE00040010160A06AB0F5005F0AD12068016886
:100EF0004DF6FF72114001602068016841F4005115
:100F00000160012084F85100002084F85000032083
:100F1000BDE8F0812068806836EA000004D0002037
:100F2000B842C1D10020F3E70120F9E7704710B5BE
:100F3000FFF71AFABDE81040FFF7BBBE10B590B03E
:100F400002200090012004901020002405900794B6
:100F50006846FFF7B1FB00B1FEE70F20CDE90A04B8
:100F60000C940D9400210AA80E94FFF79FFA00B18B
:100F7000FEE7FFF745FB4FF47A71B0FBF1F0FFF7A6
:100F800084FE0420FFF774FE00221146501EFFF776
:100F90005BFA10B010BD00000D48016841F001017E
:100FA000016041680B4A1140416001680A4A1140E2
:100FB0000160016821F480210160416821F4FE0193
:100FC00041604FF41F0181600449C003086070470D
:100FD000001002400000FFF8FFFFF6FE08ED00E001
:100FE0002DE9F041044600680169E26821F44051AE
:100FF000114301612169A0680843616908432168C0
:10100000CA6841F20C639A430243CA60206841698E
:10101000A26921F44071114341614C492068642563
:10102000322688423CD1FFF701FB00EBC00101EB07
:10103000001061688900B0FBF1F7FFF7F7FA00EBE9
:10104000C00101EB00106168B0468900B0FBF1F00F
:10105000B0FBF5F06FF01801484307EB800106EB99
:101060000110B0FBF5F000F0F006FFF7DFFA00EB3F
:10107000C00101EB001061688900B0FBF1F0B0FB2A
:10108000F5F006EB0016FFF7D1FA00EBC00101EB1B
:10109000001061688900B0FBF1F7FFF7C7FA3BE089
:1010A000FFF7B4FA00EBC00101EB001061688900A2
:1010B000B0FBF1F7FFF7AAFA00EBC00101EB00105B
:1010C0006168B0468900B0FBF1F0B0FBF5F06FF05D
:1010D0001801484307EB800106EB0110B0FBF5F067
:1010E00000F0F006FFF792FA00EBC00101EB0010F0
:1010F00061688900B0FBF1F0B0FBF5F006EB00167B
:10110000FFF784FA00EBC00101EB00106168890071
:10111000B0FBF1F7FFF77AFA00EBC00101EB00102A
:1011200061688900B0FBF1F0B0FBF5F06FF01801D9
:10113000484307EB800108EB0110B0FBF5F0216894
:1011400000F00F0030448860BDE8F08100380140B5
:10115000FEE702E008C8121F08C1002AFAD1704752
:101160007047002001E001C1121F002AFBD1704727
:10117000018D406A0022FFF7EBB8018D406A012221
:10118000FFF7E6B8018CC0690022FFF7E1B8000064
:101190009EB000208DF8000003218DF801108DF81D
:1011A00002008DF8031004218DF804100F228DF831
:1011B00005208DF806208DF8070018480290401D84
:1011C00003901CA80490164805900A200690154824
:1011D000082209900B90ADF83010ADF82820694630
:1011E0000DA800F06BF910481B901BA90DA800F08A
:1011F0007BFA0E4D4FF400544FF47A760DA800F0B0
:10120000F9F921462846FFF79FF83046FEF7B0FF70
:1012100021462846FFF798F8F0E70000D6190008A5
:101220001000002000080140EFBEADDE000C0140C0
:1012300010B5002821D0114B0022001F196803E0CF
:10124000814203D80A4649680029F9D152B113688E
:10125000841A9C4204D1006818441060104602E0D1
:10126000506000E0186039B102680B1A934203D154
:101270000B681A4402604968416010BD08000020F4
:10128000FFF77AF8FFF75AFEFFF776FD0C480B4997
:101290000C2201604FF4E131416000218160C160A6
:1012A000C0E904128161C161FFF707FD00B1FEE7EB
:1012B000FFF7AEFDFFF76CFFFEE7000000380140CE
:1012C00068000020F0B50B30154D20F00701002418
:1012D000144A0FE003688B420BD38B4205D95E1A88
:1012E00043184768C3E9006700E04368136002C021
:1012F00004E0021D10680028ECD12046002802D12D
:10130000286808B10020F0BD064A07481060074A67
:10131000121A22F00702C0E9002401202860D7E752
:101320000C00002008000020AC000020A8020020D3
:1013300038B5044600208DF800006A460721204693
:1013400000F04AF960B99DF800006A4640F070006C
:101350008DF800000721204600F014FB002800D083
:10136000012038BD38B5054600200C468DF8000038
:101370006A460121284600F02FF968B901219DF83D
:101380000000A14001438DF800106A460121284663
:1013900000F0F8FA002800D0012038BD38B5054625
:1013A00000200C468DF8000001466A46284600F0F1
:1013B00013F980B99DF8000014B140F0080001E075
:1013C00020F008008DF800006A460021284600F051
:1013D000D9FA002800D0012038BD000038B50546F4
:1013E00000200C468DF8000001466A46284600F0B1
:1013F000F3F870B99DF800006CB120F0100000BF48
:101400008DF800006A460021284600F0BBFA00284B
:1014100000D0012038BD40F01000F1E738B5054696
:1014200000200C468DF8000001466A46284600F070
:10143000D3F870B99DF800006CB120F0400000BFF7
:101440008DF800006A460021284600F09BFA00282B
:1014500000D0012038BD40F04000F1E738B5054626
:1014600000200C468DF8000001466A46284600F030
:10147000B3F870B99DF800006CB120F0200000BFF7
:101480008DF800006A460021284600F07BFA00280B
:1014900000D0012038BD40F02000F1E70EB500215A
:1014A0008DF804108DF80810009101AB02AAE2211A
:1014B00000F0D5F8002800D001200EBD38B5044654
:1014C0003422FEF72FFE2046FFF752FE2046FFF79C
:1014D00059FE0121204600F060F800208DF8000040
:1014E00004E06A460021204600F076F89DF80000EE
:1014F0008007F6D52179204600F0FCF921792046B5
:1015000000F00FFA2046A16800F0E3F92046E168F8
:1015100000F0CEF92046E16800F023FA01212046D0
:10152000FFF77CFF01212046FFF798FF01212046AD
:10153000FFF754FF01212046FFF730FFA178204636
:1015400000F00BF9E178204600F0E9F8E179204657
:1015500000F091F92178204600F021F961792046C8
:1015600000F04AF9A179204600F065F903212046F0
:1015700000F0EEF900212046FFF7F4FE2046FFF7C9
:10158000D7FE0121204600F04BF82046FFF786FFEA
:101590002046FFF7F2FD002038BD38B50546002093
:1015A0000C468DF8000001466A46284600F014F803
:1015B00080B99DF8000014B140F0020001E020F075
:1015C00002008DF800006A460021284600F0DAF992
:1015D000002800D0012038BD1CB500238DF8043050
:1015E00001230093134601AA00F039F8002800D027
:1015F00001201CBD10B50446012084F836002046A9
:10160000FFF7B6FD0121204600F00AF82046FFF75B
:10161000B4FD00BF94F836000128FBD0206910BD4E
:1016200038B5054600200C468DF8000001466A4694
:101630002846FFF7D1FF80B99DF8000014B140F0B3
:10164000010001E020F001008DF800006A46002151
:10165000284600F097F9002800D0012038BD2DE978
:10166000F84F05460A9C9A4690468946601CFFF74B
:1016700029FE0746601CFFF725FE0646002087F876
:101680000090014605E03B1818F800205A703154CC
:10169000401CA042F7DB2846FFF774FDA8690090C4
:1016A000631C324639466869FFF7F6F968B130467F
:1016B000FFF7BEFD3846FFF7BBFD0120BDE8F88F00
:1016C00031184A780AF80020401CA042F8DB298C27
:1016D0000122E869FEF73CFE3046FFF7A9FD3846D7
:1016E000FFF7A6FD0020E9E770B5044601200D468E
:1016F00084F834002046FFF73BFD00212046FFF729
:101700008FFF2946204600F04CF92046FFF735FDB3
:1017100094F834000128FBD094F8350070BD38B53A
:10172000054600200C468DF800006A460321284635
:10173000FFF752FF60B99DF800006A4600F0030011
:1017400020438DF800000321284600F01BF908B162
:10175000012038BDEC70002038BD38B505460020AA
:101760000C468DF8000001466A462846FFF734FF14
:1017700068B99DF80000012C0BD020F008008DF80E
:1017800000006A460021284600F0FCF820B1012044
:1017900038BD40F00400F2E7AC70002038BD38B529
:1017A000054600200C468DF800006A4606212846B2
:1017B000FFF712FFD8B9E0079DF8000002D040F013
:1017C000200001E020F020008DF80000A0079DF827
:1017D000000002D540F0080001E020F008008DF87C
:1017E00000006A460621284600F0CCF808B1012026
:1017F00038BD2C70002038BD38B50546002001F0FA
:101800000F048DF800006A4604212846FFF7E4FE25
:1018100060B99DF800006A4600F0F00020438DF8A2
:1018200000000421284600F0ADF808B1012038BDC1
:101830006C71002038BD38B50546002001F00F045A
:101840008DF800006A4604212846FFF7C5FE68B9F6
:101850009DF800006A4600F00F0040EA04108DF881
:1018600000000421284600F08DF808B1012038BDA1
:10187000AC71002038BD38B50546002001F07F046A
:101880008DF800006A4605212846FFF7A5FE50B9ED
:101890009DF800006A4620438DF800000521284687
:1018A00000F070F808B1012038BDEC71002038BD9F
:1018B0003EB5054605200C460A46009001AB2A219C
:1018C0002846FFF7CCFE08B101203EBD0020AC60E9
:1018D0003EBD3EB5054605200C460A46009001ABCC
:1018E0002B212846FFF7BBFE08B101203EBD00209A
:1018F000AC603EBD13B504469DF8040001AA00F09B
:101900003F008DF804001121204600F03BF818B18B
:101910000020207101201CBD9DF8040020710020D2
:101920001CBD13B504469DF8040001AA00F03F0059
:101930008DF804001221204600F024F818B1002090
:10194000207101201CBD9DF80400207100201CBDE9
:1019500013B501AA022100F015F8002800D00120DB
:101960001CBD3EB5054605200C460A46009001AB5D
:1019700030212846FFF773FE08B101203EBD00204C
:10198000EC603EBD1CB500238DF8043001230093AC
:1019900041F0200101ABFFF762FE002800D00120DA
:1019A0001CBDF8B504460D460079FFF78BFC0646D2
:1019B0002079009033462A46A0212046FFF74FFEAB
:1019C0000028304603D0FFF733FC0120F8BDFFF7B5
:1019D0002FFC0020F8BD01020304050102030406E8
:1019E00000000000000000000102030406070809CF
:1019F0000000000001020304181A00080000002083
:101A00001000000052110008281A000810000020E1
:101A100098060000621100080000000000A24A04BD
:081A20000000000000000000BE
:04000005080000ED02
:00000001FF
