:020000040800F2
:1000000068060020010100084B110008D710000805
:1000100049110008DF010008391500080000000040
:100020000000000000000000000000006F11000848
:10003000C5040008000000006D11000871110008DF
:100040001B0100081B0100081B0100081B01000820
:100050001B0100081B0100081B0100081B01000810
:100060001B0100081B0100081B0100081B01000800
:100070001B0100081B0100081B0100081B010008F0
:100080001B0100081B0100081B0100081B010008E0
:100090001B0100081B0100081B0100081B010008D0
:1000A0001B0100081B0100081B0100081B010008C0
:1000B0001B0100081B0100081B0100081B010008B0
:1000C0001B0100081B0100081B0100081B010008A0
:1000D0001B0100082D1500081B0100081B0100086A
:1000E0001B0100081B0100081B010008DFF80CD0F1
:1000F00000F038F800480047BD15000868060020E9
:100100000648804706480047FEE7FEE7FEE7FEE7B1
:10011000FEE7FEE7FEE7FEE7FEE7FEE7E91100087F
:10012000ED000008D2B201E000F8012B491EFBD21D
:1001300070470022F6E710B513460A4604461946F2
:10014000FFF7F0FF204610BD10B5002200E0521C62
:10015000835C8C5CA34201D1002BF8D1D8B2E1B210
:10016000401A10BD064C074D06E0E06840F0010360
:1001700094E8070098471034AC42F6D3FFF7BAFF73
:10018000FC1800081C19000870B58C1810F8015BE9
:1001900015F0070301D110F8013B2A1106D110F820
:1001A000012B03E010F8016B01F8016B5B1EF9D124
:1001B0002B0705D40023521E0DD401F8013BFAE7AA
:1001C00010F8013BCB1A921C03E013F8015B01F815
:1001D000015B521EF9D5A142D8D3002070BDFEE7C5
:1001E00070B506460025072000F00CF904464006CD
:1001F0000AD500221021074800F0A7FA2022314634
:10020000612000F017F901252146272000F0E0F8D1
:10021000284670BD0008014010B5642000F0A0F928
:100220001A4C00221021204600F08FFA01220821EA
:10023000204600F08AFA00222021204600F085FAAC
:1002400005221349302000F019F911490522491DF2
:100250002A2000F013F90121212000F0B9F8012132
:10026000222000F0B5F80421252000F0B1F820216B
:10027000312000F0ADF80721262000F0A9F80E216A
:10028000BDE81040202000F0A3B8000000080140A5
:10029000000000207FB5402000900020084D03247E
:1002A000019069460394284600F06CF9B82000904C
:1002B0000120019069460394284600F063F97FBD50
:1002C0000008014070B5104D044600221021284658
:1002D00000F03BFA05220D492A2000F0CFF8202239
:1002E0002146A02000F0CAF80E21202000F070F86E
:1002F00001221021284600F028FABDE87040FF21B5
:10030000272000F065B80000000801400000002030
:1003100010B50A4C00221021204600F016FA0F21D9
:10032000202000F055F801221021204600F00DFA9F
:10033000BDE81040822000F013B900000008014021
:1003400010B50A4C00221021204600F0FEF90E21C3
:10035000202000F03DF801221021204600F0F5F9A0
:10036000BDE81040822000F0FBB80000000801400A
:100370002DE9F041154E05460024280601D501223D
:1003800000E000228021304600F0DFF9052000F077
:10039000E7F86806070E01222021304600F0D5F963
:1003A000052000F0DDF84021304600F0C9F940EAB0
:1003B000070500222021304600F0C7F9641CE4B292
:1003C000082CDAD32846BDE8F0810000000801407F
:1003D00070B50B4D0E46044600220821284600F059
:1003E000B4F92046FFF7C4FF04463046FFF7C0FFCC
:1003F00001220821284600F0A8F9204670BD00001F
:100400000008014070B50A4D044600220821284624
:1004100000F09BF92046FFF7ABFF0020FFF7A8FF95
:10042000044601220821284600F08FF9204670BDBD
:10043000000801402DE9F041DFF83C8015460F46E9
:10044000044600220821404600F07FF92046FFF7CD
:100450008FFF0646002405E00020FFF789FF38558E
:10046000641CE4B2AC42F7D301220821404600F0FC
:100470006CF93046BDE8F081000801402DE9F041FB
:10048000DFF83C8016460D4604460022082140460F
:1004900000F05BF92046FFF76BFF0746002405E0FC
:1004A00015F8010BFFF764FF641CE4B2B442F7D304
:1004B00001220821404600F048F93846BDE8F081A5
:1004C000000801407047000010B590F8211000248A
:1004D000022903D00421816301243DE001680A68F8
:1004E00022F00E020A6001680A6822F001020A6026
:1004F0001A4A0168914201D1012121E0174A1432C0
:10050000914201D110211BE0144A2832914201D1BD
:10051000891515E0114A3C32914201D189140FE04E
:100520000E4A5032914202D14FF4803108E00B4A1A
:100530006432914202D14FF4801101E04FF080719A
:10054000064A083A5160012180F82110002180F804
:100550002010416B01B18847204610BD08000240C1
:1005600070B5044600F0F6F80546601C02D0044859
:100570000078044400F0EEF8401BA042FAD370BDAE
:10058000D80100202DE9F84FDFF890A100220AF1F0
:10059000040B144601274FF00F090BF1040E00BFA6
:1005A0000B6807FA04F52B40AB4274D1DFF870C139
:1005B0004E68A6EB0C0866452BD00DDC032E34D01C
:1005C00005DC36B3012E19D0022E2FD11BE0112EDF
:1005D00016D0122E2AD119E0B8F5881F19D006DCE2
:1005E000B8F5803F15D0B8F5801F1FD111E0B8F5E0
:1005F000001F0ED0B8F5041F18D10AE0CA6815E034
:10060000CA68121D12E0CA6808320FE0CA680C32CC
:100610000CE08A682AB1012A4FF0080203D0456134
:1006200004E0042202E0056100E00022FF2B01D873
:10063000064601E000F104064FEA840501D9A5F160
:100640002005D6F800C009FA05F82CEA080C02FAD1
:1006500005F54CEA050CC6F800C04D68ED0057D50D
:10066000304DAE6946F00106AE61AD6924F0030677
:1006700005F0010500952C4D06EB050CDCF8085043
:10068000A6074FEA167809FA08F6B543274EB04296
:1006900002D1002610E03BE0254EB04201D10126F8
:1006A0000AE0244EB04201D1022605E0224EB042BB
:1006B00001D1032600E0042606FA08F62E43CCF802
:1006C00008604D68DAF80060ED03554601D51E4319
:1006D00000E09E432E604D68DBF80060AD035D4690
:1006E00001D51E4300E09E432E604D68DEF8006099
:1006F000ED02754601D51E4300E09E432E604D6815
:10070000AD020E4D2E6801D51E4300E09E432E60C3
:10071000641C102CFFF444AFBDE8F88F00040140C6
:1007200000001110001002400000014000080140CC
:10073000000C014000100140001401400C04014075
:100740008068084000D0012070470AB101617047FD
:100750000904FBE70148806870470000D8010020C9
:10076000024881680278114481607047D8010020F6
:10077000074810B5016841F010010160032000F046
:100780009DF8002000F006F800F024F8002010BDCD
:100790000020024070B50D4D04464FF47A71287860
:1007A000B1FBF0F00A490968B1FBF0F000F02DFB55
:1007B00048B9102C07D200222146501E00F05EF8E6
:1007C00000206C6070BD012070BD0000D8010020C9
:1007D000E4010020214808B5816941F001018161EF
:1007E000816901F001010091C16941F08051C1614D
:1007F000C06900F080500090032000F05FF80022F4
:1008000011466FF00B0000F039F8002211466FF02E
:100810000A0000F033F8002211466FF0090000F0E2
:100820002DF800221146501F00F028F80022114632
:10083000101F00F023F800221146901E00F01EF851
:1008400000221146501E00F019F80548416821F0B9
:10085000E06141F00071416008BD000000100240FD
:100860000000014000F01F0201219140400980007A
:1008700000F1E020C0F8001170470000F0B40E4B0A
:100880001B680C46C3F30223C3F10705042D00D9EE
:100890000425191D072901D2002300E0DB1E0126D3
:1008A00006FA05F1491E214099409E40761E1640E9
:1008B0003143F0BC00F04ABC0CED00E0064900F00A
:1008C000070208684FF6FF03184040EA0220034A77
:1008D00010430860704700000CED00E00000FA05CE
:1008E0002DE9F047DFF83C8105460E46D8F80000B8
:1008F00000F00700B0420CD2D8F8001021F0070138
:100900003143C8F80010D8F8000000F00700B042EA
:1009100063D12878444C800705D56068A96820F029
:10092000F000084360602878C00745D06868012857
:1009300016D02168022816D0890700294DDA61688F
:1009400021F0030101436160FFF704FF6968074676
:1009500041F2883001290FD00229814619D027E0C1
:1009600021688903E9E78901E7E700BFFFF7F2FEA5
:10097000C11B494501D918E081466068C0F3810078
:100980000128F3D118E000BFFFF7E4FEC11B494581
:100990000BD86068C0F381000228F5D10CE000BFDD
:1009A000FFF7D8FEC11B494502D90320BDE8F087F7
:1009B000606810F00C0FF3D1D8F80010404601F039
:1009C0000701B1420BD9016821F0070131430160F1
:1009D000006800F00700B04201D00120E6E7287867
:1009E000400705D56068E96820F4E060084360606E
:1009F0002878000706D56068296920F4605040EA2D
:100A0000C100606000F03CF86168084AC1F303115E
:100A1000515CC840064908600020FFF7BBFE00207B
:100A2000C4E700000020024000100240E418000863
:100A3000E40100200148006870470000E401002044
:100A40000448054900684968044AC1F30221515C21
:100A5000C8407047E401002000100240F41800086C
:100A60000448054900684968044AC1F3C221515C41
:100A7000C8407047E401002000100240F41800084C
:100A800012A185B00FC98DE80F0014A0144A0068A8
:100A900004905168134801F00C03042B10D0082B6C
:100AA0000ED1C1F38343C9031DF803000AD5516871
:100AB00004AAC1F34041515C0A4A5043B0FBF1F033
:100AC00005B0704708494843FAE7000002030405EF
:100AD000060708090A0B0C0D0E0F1010010200008A
:100AE0000010024000127A0000093D002DE9F84F85
:100AF00004460078B94DC00748D06868C0F381004B
:100B0000012807D06868C0F38100022809D168680D
:100B1000C00306D52868800338D5606800286FD0E8
:100B200034E06068B0F5803F0BD010B1B0F5A02F75
:100B300011D0286820F480302860286820F48020B4
:100B400002E0286840F480302860606888B1FFF7D0
:100B500001FE064609E0286840F480202860F0E79E
:100B6000FFF7F8FD801B642875D828688003F7D547
:100B70000CE0FFF7EFFD064605E000BFFFF7EAFDDA
:100B8000801B6428F0D828688003F7D42078944E1E
:100B900080074FF001094FF000083BD5686810F05E
:100BA0000C0F07D06868C0F38100022809D168687B
:100BB000C00306D42868800714D5206901281FD1F6
:100BC00010E02069B0B1C6F80090FFF7C3FD0746FA
:100BD00005E000BFFFF7BEFDC01B0228C4D828688F
:100BE0008007F7D52868616920F0F80040EAC10065
:100BF00028600FE0C6F80080FFF7ACFD074606E06E
:100C0000E9E000BFFFF7A6FDC01B022823D8286833
:100C10008007F7D4207800072CD57248A169D9B194
:100C2000C0F80090FFF796FD074604E0FFF792FD3D
:100C3000C01B02280FD8686A8007F7D56A484FF4AE
:100C4000FA510068B0FBF1F0009000BF0098411E1F
:100C50000091FAD20EE080E0C0F80080FFF77AFD44
:100C6000074604E0FFF776FDC01B022875D8686AC6
:100C70008007F7D42078400760D5E8690027C000D6
:100C800008D4E86940F08050E861E869012700F085
:100C90008050009055480168C90513D40168834607
:100CA00041F480710160FFF755FD824606E000BF08
:100CB000FFF750FDA0EB0A0064284ED8DBF80000D7
:100CC000C005F5D5E06801280AD008B1052813D081
:100CD000286A20F001002862286A20F0040002E05F
:100CE000286A40F001002862E06841F2883B98B130
:100CF000FFF730FD82460BE0286A40F004002862CE
:100D0000EEE700BFFFF726FDA0EB0A0159455AD8D0
:100D1000286A8007F6D50CE0FFF71CFD824605E047
:100D2000FFF718FDA0EB0A0159454CD8286A800747
:100D3000F6D41FB1E86920F08050E861E06988B31B
:100D40006968C1F38101022945D00228C6F8608094
:100D500004D0FFF7FFFC044638E034E0FFF7FAFC6C
:100D6000074604E0FFF7F6FCC01B02282BD82868D2
:100D70008001F7D4206AB0F5803F05D16868A1688A
:100D800020F4003008436860D4E90801084369682A
:100D900021F4741108436860C6F86090FFF7DAFC2C
:100DA000044606E015E000BFFFF7D4FC001B022854
:100DB00009D828688001F7D50BE000BFFFF7CAFC0F
:100DC000001B022802D90320BDE8F88F28688001A3
:100DD000F4D40020F8E70120F6E7000000100240FC
:100DE0000000424280044242E401002000700040C2
:100DF0004FF0E0210428086903D020F004000861C6
:100E0000704740F00400FAE7704710B5401EB0F19B
:100E1000807F01D3012010BD4FF0E02460610F21DD
:100E2000601700F093F90020A061072020610020E6
:100E300010BD10B5FFF7E8FF10BD704770B5026830
:100E400004461068D168536910F00F0F50D003F0BA
:100E5000010501F4907635435DD0C20705D0CA057F
:100E600003D5E26B42F00102E263420705D5DA07DF
:100E700003D0E26B42F00202E263820705D5DA0793
:100E800003D0E26B42F00402E263020705D5DA0701
:100E900003D0E26B42F00802E263E26B002A33D037
:100EA000800604D5880602D5204600F0D7F92068D0
:100EB0004069E16BC0F38010090700D428B32046D5
:100EC00000F0BEF92068416949061AD5416921F050
:100ED00040014161606BA0B11B494163606BFFF74A
:100EE000F3FA002810D0606B416BBDE870400847F2
:100EF000830610D58B060ED52046BDE8704000F065
:100F0000ADB92046FFF799FF70BD2046FFF795FF6A
:100F10000020E06370BD030606D50B0604D520460D
:100F2000BDE8704000F09EBA4006F3D54806F1D502
:100F3000D168204621F04001D160202184F8391089
:100F400000F0C8F870BD00003112000870B5040050
:100F500004D094F83900002510B106E0012070BDDE
:100F600084F83850204600F023F8242084F8390013
:100F70002068C16821F40051C160204600F0BAF930
:100F80002068016921F4904101612068416921F0E4
:100F90002A0141612068C16841F40051C160E563E4
:100FA000202084F8390084F83A00002070BD000049
:100FB00010B50068154986B0884225D1144881696A
:100FC00041F4804181618069124C00F480400490BA
:100FD0004FF40070009002200190032003906946B6
:100FE0002046FFF7CFFA00212015CDE9000102913C
:100FF00069462046FFF7C6FA002211462520FFF772
:101000003DFC2520FFF72EFC06B010BD0038014046
:10101000001002400008014070472DE9F8430446E3
:1010200090F839001F4616460D46202850D1A5B12C
:101030009EB194F8380001284AD0012084F8380085
:101040004FF00008C4F83C80212084F83900FFF7F5
:1010500081FBA6848146E68426E00120BDE8F88372
:10106000E08C401EE084A0684B46B0F5805F4FF0F6
:1010700000024FF080012046009703D000F023FAD1
:10108000E8B90DE000F01FFAC8B928882168C0F35C
:1010900008004860206908B16D1C05E0AD1C03E044
:1010A000216815F8010B4860E08C0028D8D14B4628
:1010B000002240212046009700F005FA08B10320E5
:1010C000CCE7202084F8390084F838800020C5E778
:1010D0000220C3E77047FEE730B5194885B0816943
:1010E00041F020018161816901F020010491816951
:1010F00041F008018161816901F008010491816971
:1011000041F0040181618069002400F00400049032
:101110004FF48060CDE900040A4D694628460294E8
:10112000FFF730FAE81400900120CDE90104022015
:10113000039069462846FFF725FA05B030BD000048
:1011400000100240000C0140FEE770470907090E3D
:10115000002806DA00F00F0000F1E02080F8141DEE
:10116000704700F1E02080F8001470477047704726
:1011700010B5FFF7F5FABDE81040FFF75ABE30B5DD
:101180008FB001210804CDE900100024029402254B
:101190000491CDE907504FF4E01009906846FFF73D
:1011A000A5FC00B1FEE70F20CDE90A054FF48060F1
:1011B000CDE90C4002210AA80E94FFF791FB00B183
:1011C000FEE7FFF737FC4FF47A71B0FBF1F0FFF761
:1011D0001CFE0420FFF70CFE00221146501EFFF7F4
:1011E0004DFB0FB030BD00000D48016841F001011A
:1011F000016041680B4A1140416001680A4A114090
:101200000160016821F480210160416821F4FE0140
:1012100041604FF41F0181600449C00308607047BA
:10122000001002400000FFF8FFFFF6FE08ED00E0AE
:1012300010B5406A0021C185C184FFF7FEFD10BDD5
:101240000168CA6822F49072CA6001684A6922F093
:1012500001024A61202180F83A10704710B590F8D9
:101260003A10222901D0022010BD8168B1F5805FBB
:1012700011D00169002901681FD0496801F07F037E
:10128000816A4A1C82620B70C18D491E0904090CD7
:10129000C18518D02BE00269816A002A0268526871
:1012A00005D0D2B20A80816A491C8162ECE7C2F3A0
:1012B00008020A80816A891CF7E74A68816A4B1C28
:1012C00083620A70E0E70168CA6822F02002CA60FF
:1012D0000168CA6822F48072CA6001684A6922F013
:1012E00001024A61202180F83A10FFF795FE0020A4
:1012F00010BD00002DE9F041044600680169E26874
:1013000021F44051114301612169A06808436169DA
:1013100008432168CA6841F20C639A430243CA60D9
:1013200020684169A26921F44071114341614C492F
:1013300020686425322688423CD1FFF791FB00EB00
:10134000C00101EB001061688900B0FBF1F7FFF705
:1013500087FB00EBC00101EB00106168B04689001B
:10136000B0FBF1F0B0FBF5F06FF01801484307EB6C
:10137000800106EB0110B0FBF5F000F0F006FFF77E
:101380006FFB00EBC00101EB001061688900B0FB4E
:10139000F1F0B0FBF5F006EB0016FFF761FB00EB98
:1013A000C00101EB001061688900B0FBF1F7FFF7A5
:1013B00057FB3BE0FFF744FB00EBC00101EB0010E3
:1013C00061688900B0FBF1F7FFF73AFB00EBC00161
:1013D00001EB00106168B0468900B0FBF1F0B0FB92
:1013E000F5F06FF01801484307EB800106EB0110A0
:1013F000B0FBF5F000F0F006FFF722FB00EBC001B8
:1014000001EB001061688900B0FBF1F0B0FBF5F072
:1014100006EB0016FFF714FB00EBC00101EB001018
:1014200061688900B0FBF1F7FFF70AFB00EBC00130
:1014300001EB001061688900B0FBF1F0B0FBF5F042
:101440006FF01801484307EB800108EB0110B0FB77
:10145000F5F0216800F00F0030448860BDE8F081AD
:101460000038014090F83910212901D0022070473E
:101470008168B1F5805F016A0BD04A1C0262026884
:1014800009785160C18C491E0904090CC1840ED031
:1014900017E009880268C1F3080151600169002959
:1014A000016A02D0491C0162ECE7891CFBE7016874
:1014B000CA6822F08002CA600068C16841F0400139
:1014C000C160002070472DE9F041984617460E464E
:1014D0000446069D1DE0681C1BD02DB1FFF73AF9AC
:1014E000A0EB0800A84214D92068C16821F4D0718B
:1014F000C1602068416921F001014161202084F828
:10150000390084F83A00002084F838000320BDE850
:10151000F0812068006836EA000004D00020B8425C
:10152000D9D00020F3E70120F9E700000148FFF7D8
:1015300085BC0000E8010020FEE700001CB5034662
:101540000020144600290AD0491ECDE90031044A82
:101550006946204600F015F8009A002111701CBD64
:10156000A515000802E008C8121F08C1002AFAD118
:1015700070477047002001E001C1121F002AFBD113
:1015800070472DE9F04116460F460446002503E05A
:101590003946B047641C6D1C20780028F8D12846D5
:1015A000BDE8F0814A68002A06D00A68531C0B6027
:1015B00010704868401E486070470000FFF7D8F878
:1015C000FFF7DDFDFFF788FD6948684900240160E9
:1015D0004FF4E131C0E901140C21C460C0E90441B9
:1015E0008461C461FFF7B2FC00B1FEE7FEF752FE72
:1015F000FEF712FEFEF78CFEA04601255D4E5E4C06
:10160000EF0200BFC4F800805948C4F8048040309D
:10161000C4F80880FEF7E4FD01287DD15649052372
:1016200020220C315248FFF7F8FC514853A14030BA
:10163000FEF78AFD30B14E4852A14030FEF784FDDE
:1016400000286AD14A490523202240314848FFF743
:10165000E4FC00F09BF8464820214030FEF769FD8D
:1016600079E04549052320222C314148FFF7D5FC7C
:101670003F490523202260313D48FFF7CEFCFEF7AD
:101680005FFE3B486030FEF71DFE61E0A0683A490E
:10169000401CA06005232022EC313548FFF7BDFC3B
:1016A000354905232022CC313148FFF7B6FC3048BC
:1016B00020214030FEF73DFDFEF72AFE2C48403049
:1016C000FEF78EFD012814D12B492948AC3140305A
:1016D000FEF73AFD4FF005034FF0200220B32649F4
:1016E0006C312348FFF799FC214820214030FEF758
:1016F00020FDA06805282BDD1F4925600523202239
:101700004C311B486560FFF788FC39463046FFF7CF
:1017100017F8E8B1394601E025E01FE03046FFF751
:101720000FF8012814D10DE0114911484031FFF79D
:1017300074FC042025601049C4E9015005232022CF
:101740008C31CEE700224FF480613046FEF7FDFF7A
:10175000606800289AD02068002882D004482021A0
:101760004030FEF7E6FCFEF7D3FD4BE700380140C2
:10177000E8010020000C01400C0000204F4E5F31BA
:10178000620000004F46465F3162000070B542A122
:101790004348FEF7D9FC434E4FF4006428B342A1FE
:1017A0003F48FEF7D1FC002875D12146354630462A
:1017B000FEF7C6FF002853D021462846FEF7C0FF9B
:1017C000012868D136480523202239494038FFF7DF
:1017D00024FC002221462846FEF7B7FF2146284672
:1017E000FEF7AEFF01284BD042E0254621463446A5
:1017F0003046FEF7A5FF012805D029462046FEF712
:101800009FFF48B120E02A4925480523202280393E
:101810004038FFF702FC11E025492148052320222A
:1018200040394038FFF7F9FB012229462046FEF7F0
:101830008CFF29462046FEF783FF38B116A21848D0
:1018400020212030FFF77AFE13A212E01849144835
:101850000523202220394038FFF7DFFB15A2EEE7F1
:1018600013490F480523202260394038FFF7D5FB84
:101870000DA2BDE870400A4820212030FFF75EBE6F
:101880000B4907480523202220314038FFF7C5FBCC
:101890000EA2EEE7FFE770BD4F4E5F316200000021
:1018A00028020020000C01404F46465F31620000D4
:1018B000980100204B686F6E672062617420647528
:1018C0006F6320626F6D5F31620000004B686F6E66
:1018D00067207461742064756F6320626F6D5F317F
:1018E000620000000000000000000000010203048C
:1018F0000607080900000000010203041C19000883
:1019000000000020E801000088010008BC19000860
:10191000E801002080040000741500081A11013A43
:101920000305E1000D146368756F695F6E68616E91
:101930000D0A080B1464616E672074727579652155
:101940002C6B686F2119401C6820630BE9253960F6
:101950000D14206C6F695F110809154B4554205414
:101960004855431F110B166F6B1A69601F65636B37
:10197000206C61641D616E20636DC930091C3E21BD
:101980005A20010F10426174207361E469200A1D1E
:101990005420194009136BA960880B6B686F6E6740
:1019A0002064756F632B9960091B402980091240E0
:0C19B000320182100400A24A0400000072
:04000005080000ED02
:00000001FF
