:020000040800F2
:10000000383B00200101000893170008EF16000894
:100010009117000845020008A52000080000000014
:10002000000000000000000000000000991B000814
:100030009902000800000000B51700089B1B00088B
:100040001B0100081B0100081B0100081B01000820
:100050001B0100081B0100081B0100081B01000810
:100060001B0100081B0100081B01000849020008D1
:100070001B0100081B0100081B0100081B010008F0
:100080001B0100081B0100081B0100081B010008E0
:100090001B0100081B0100081B0100081B010008D0
:1000A0001B0100081B0100081B0100081B010008C0
:1000B0001B0100081B0100081B0100081B010008B0
:1000C0001B0100081B0100081B0100081B010008A0
:1000D0001B010008691F00081B0100081B01000824
:1000E0001B0100081B0100081B010008DFF80CD0F1
:1000F00000F060F800480047793E0008383B0020D7
:100100000648804706480047FEE7FEE7FEE7FEE7B1
:10011000FEE7FEE7FEE7FEE7FEE7FEE7251C000838
:10012000ED000008202A04DB203A21FA02F0002129
:10013000704721FA02F3D040C2F1200291400843F7
:1001400019467047421C10F8011B0029FBD1801A88
:1001500070472DE9F05F0546002092469B46884691
:100160000646814640241BE0284641464746224633
:10017000FFF7D8FF53465A46C01A914110D3114693
:100180001846224600F028F82D1A67EB01084F4662
:1001900022460120002100F01FF817EB00094E4114
:1001A000201EA4F10104DFDC484631462A464346BE
:1001B000BDE8F09F064C074D06E0E06840F0010303
:1001C00094E8070098471034AC42F6D3FFF792FF4B
:1001D000084A0008284A0008202A04DB203A00FACE
:1001E00002F1002070479140C2F1200320FA03F38E
:1001F000194390407047000070B50446006881685C
:10020000C943C9071CD1816821F00101816000F058
:10021000DBFB05460FE000BF00F0D6FB401B0228C9
:1002200009D9A06A40F01000A062E06A40F0010025
:10023000E062012070BD20688068C043C007EBD039
:10024000002070BDFEE70000014800F0EBB900009F
:10025000D03400200E48016821F0807101600168EF
:1002600041F0807101600B48016821F001010160DB
:10027000016841F0010101600021416000BF00BF41
:1002800000BF406808B1002070470120704700009F
:10029000FCED00E0001000E070470022AFF30080AA
:1002A00030B50E4B054601205C7A012C15D8587AE2
:1002B00000241C54587A03EB800045605D7A03F1FA
:1002C00008002A54587A421C5A72303008703A207A
:1002D00048702F208870CC70002030BD2C37002053
:1002E000F8B50024009490F824202546012A12D065
:1002F000012280F824204A681F23072A0DD20668AD
:10030000776B521E02EB820293409F430B6893402F
:100310001F43776319E00220F8BD06680D2A0AD250
:10032000376BD21F02EB820293409F430B689340CE
:100330001F43376309E0F76A0D3A02EB82029340EC
:100340009F430B6893401F43F7620A6807230668C0
:100350000A2A0AD3F7680A3A02EB420293409F4303
:100360008B6893401F43F76008E0376902EB420255
:1003700093409F438B6893401F4337610A68102A5C
:1003800001D0112A20D1124B02689A4217D19368EA
:100390001B0219D4936843F4000393600968102981
:1003A00012D10C490C4A0968B1FBF2F101EB810151
:1003B000490000E0491E00910029FBD104E0816A58
:1003C00041F020018162012480F824502046F8BDCC
:1003D000002401404C00002040420F002DE9F04174
:1003E0004FF0000704003D467ED0A06A002628B9E1
:1003F000E66284F82460204600F07EF82046FFF78D
:10040000FBFEA16AC90600D420B1A06A40F010002A
:10041000A06269E0A16A21F4885141F00201A16261
:100420006268E169E3680A4347EA43010A43A16855
:100430004FF48077B94209D0012907D05FF000015D
:10044000D4F814C0BCF1010F02D00AE03946F7E736
:10045000F3B1A36A43F02003A362E36A43F001030C
:10046000E3622368D3F804C02CF4694C4CEA010C15
:10047000C3F804C021688B68DFF870C003EA0C037E
:1004800013438B60A168B9420BD0012909D00CE05D
:10049000DFF85CC0A3690CEB43330B4343F400610A
:1004A000DFE7218A0D05A5F580152168CB6A23F4C5
:1004B00070032B43CB62216889680E4B194091422F
:1004C00008D1E662A16A21F0020141F00101A162B6
:1004D000BDE8F081A06A20F0020040F01000A062A8
:1004E000E06A40F00100E0620120F1E7FDF7E1FF82
:1004F00000E0FFFFFE0E1FFF30B5054600681749FC
:1005000085B0884228D11648816941F40071816123
:100510008069694600F40070049001200090032077
:100520000190104800F06CF9104C0F4880212060B9
:1005300000206060C4E90201490021618900C4E92A
:100540000510E061204600F017F918B1802108A0DD
:1005500001F0A9FD2C62656205B030BD00240140A8
:10056000001002400008014008000240D034002082
:100570002E2E2F5372632F73746D33326631787859
:100580005F68616C5F6D73702E63000010B590F84A
:1005900021100024022903D00421816301243DE0BD
:1005A00001680A6822F00E020A6001680A6822F0F7
:1005B00001020A601A4A0168914201D1012121E039
:1005C000174A1432914201D110211BE0144A2832FB
:1005D000914201D1891515E0114A3C32914201D175
:1005E00089140FE00E4A5032914202D14FF480310B
:1005F00008E00B4A6432914202D14FF4801101E0CD
:100600004FF08071064A083A5160012180F82110AC
:10061000002180F82010416B01B18847204610BDB1
:10062000080002402DE9F05FC16B0C6801680B689F
:10063000D0F840C0042202FA0CF2494DDFF824A1A0
:10064000494E4A4FDFF828B1DFF828E122422CD08A
:100650005A072AD50A68920603D40A6822F00402CF
:100660000A600168A94201D1042219E0514501D173
:10067000402215E0B14202D14FF4806210E0B9424D
:1006800002D14FF480420BE0594502D14FF4802251
:1006900006E0714502D14FF4800201E04FF0806224
:1006A0002F4908394A60C16A3BE04FF0020808FA56
:1006B0000CF818EA040F4FF000094FF0010235D092
:1006C0005FEA837832D50B689B0605D40B6823F06C
:1006D0000A030B6080F821200168A94201D102229F
:1006E00019E0514501D1202215E0B14202D14FF469
:1006F000007210E0B94202D14FF400520BE05945AC
:1007000002D14FF4003206E0714502D14FF40012DD
:1007100001E04FF00072124908394A6080F82090D9
:10072000816A00291AD0BDE8F05F0847082505FA5C
:100730000CF5254212D01B0710D50B6823F00E03D1
:100740000B6090F84010C36B02FA01F159608263AC
:1007500080F8212080F82090016BE2E7BDE8F09F4F
:10076000080002401C0002403000024044000240E9
:10077000580002406C00024030B548B308C8154923
:1007800014221944B1FBF2F18900C163124981635B
:10079000022141771A6843F6F0718A43D0E90014C8
:1007A0002143D0E902452C43214304692143446994
:1007B0002143846921431143196000214162816210
:1007C000C16201634163012242770177084630BD6F
:1007D000012030BDF8FFFDBF0000024070B50446A7
:1007E00000F0F2F80546601C02D00448007804448A
:1007F00000F0EAF8401BA042FAD370BD4000002090
:100800002DE9F84FDFF890A100220AF1040B1446FD
:1008100001274FF00F090BF1040E00BF0B6807FA18
:1008200004F52B40AB4274D1DFF870C14E68A6EBE3
:100830000C0866452BD00DDC032E34D005DC36B316
:10084000012E19D0022E2FD11BE0112E16D0122E00
:100850002AD119E0B8F5881F19D006DCB8F5803F19
:1008600015D0B8F5801F1FD111E0B8F5001F0ED0CC
:10087000B8F5041F18D10AE0CA6815E0CA68121D4D
:1008800012E0CA6808320FE0CA680C320CE08A68CD
:100890002AB1012A4FF0080203D0456104E0042286
:1008A00002E0056100E00022FF2B01D8064601E0CE
:1008B00000F104064FEA840501D9A5F12005D6F818
:1008C00000C009FA05F82CEA080C02FA05F54CEA12
:1008D000050CC6F800C04D68ED0057D5304DAE6927
:1008E00046F00106AE61AD6924F0030605F001058E
:1008F00000952C4D06EB050CDCF80850A6074FEAD6
:10090000167809FA08F6B543274EB04202D1002600
:1009100010E03BE0254EB04201D101260AE0244E12
:10092000B04201D1022605E0224EB04201D1032699
:1009300000E0042606FA08F62E43CCF808604D685D
:10094000DAF80060ED03554601D51E4300E09E43F2
:100950002E604D68DBF80060AD035D4601D51E4397
:1009600000E09E432E604D68DEF80060ED027546A3
:1009700001D51E4300E09E432E604D68AD020E4D32
:100980002E6801D51E4300E09E432E60641C102C8F
:10099000FFF444AFBDE8F88F0004014000001110DF
:1009A000001002400000014000080140000C01401E
:1009B00000100140001401400C0401400AB1016123
:1009C00070470904FBE70000014880687047000099
:1009D000400000200248816802781144816070471D
:1009E00040000020074810B5016841F01001016087
:1009F000032000F09DF8002000F006F800F024F835
:100A0000002010BD0020024070B50D4D04464FF48B
:100A10007A712878B1FBF0F00A490968B1FBF0F06F
:100A200000F0FFFC48B9102C07D200222146501ECE
:100A300000F05EF800206C6070BD012070BD000009
:100A4000400000204C000020214808B5816941F099
:100A500001018161816901F001010091C16941F0E9
:100A60008051C161C06900F080500090032000F007
:100A70005FF8002211466FF00B0000F039F80022F9
:100A800011466FF00A0000F033F8002211466FF0B3
:100A9000090000F02DF800221146501F00F028F840
:100AA00000221146101F00F023F800221146901E6C
:100AB00000F01EF800221146501E00F019F80548FB
:100AC000416821F0E06141F00071416008BD000023
:100AD000001002400000014000F01F02012191407F
:100AE0004009800000F1E020C0F8001170470000CC
:100AF000F0B40E4B1B680C46C3F30223C3F1070589
:100B0000042D00D90425191D072901D2002300E076
:100B1000DB1E012606FA05F1491E214099409E4040
:100B2000761E16403143F0BC00F034BE0CED00E000
:100B3000064900F0070208684FF6FF03184040EA34
:100B40000220034A10430860704700000CED00E0EB
:100B50000000FA052DE9F84305460078354CC0073A
:100B600054D0E0690026C00008D4E06940F080500D
:100B7000E061E069012600F0805000902E48016895
:100B8000C90512D40168804641F480710160FFF705
:100B90001BFF074605E000BFFFF716FFC01B6428D8
:100BA00023D8D8F80000C005F6D5206A10F44070AC
:100BB00021D0A98801F4407181421CD0206A1F49CC
:100BC000012220F440700A6000220A602062C007FF
:100BD00011D0FFF7F9FE074641F2883808E000BF60
:100BE000FFF7F2FEC11B414502D90320BDE8F8839F
:100BF000206A8007F4D5206A696820F440700843B1
:100C000020621EB1E06920F08050E0612878800702
:100C100005D56068A96820F44040084360602878E2
:100C2000C00605D56068E96820F48000084360606C
:100C30000020DBE700100240007000404004424208
:100C40002DE9F047DFF83C8105460E46D8F8000054
:100C500000F00700B0420CD2D8F8001021F00701D4
:100C60003143C8F80010D8F8000000F00700B04287
:100C700063D12878444C800705D56068A96820F0C6
:100C8000F000084360602878C00745D068680128F4
:100C900016D02168022816D0890700294DDA61682C
:100CA00021F0030101436160FFF78EFE696807468A
:100CB00041F2883001290FD00229814619D027E05E
:100CC00021688903E9E78901E7E700BFFFF77CFEB8
:100CD000C11B494501D918E081466068C0F3810015
:100CE0000128F3D118E000BFFFF76EFEC11B494594
:100CF0000BD86068C0F381000228F5D10CE000BF7A
:100D0000FFF762FEC11B494502D90320BDE8F08709
:100D1000606810F00C0FF3D1D8F80010404601F0D5
:100D20000701B1420BD9016821F00701314301608D
:100D3000006800F00700B04201D00120E6E7287803
:100D4000400705D56068E96820F4E060084360600A
:100D50002878000706D56068296920F4605040EAC9
:100D6000C100606000F03CF86168084AC1F30311FB
:100D7000515CC840064908600020FFF745FE00208E
:100D8000C4E7000000200240001002407644000842
:100D90004C00002001480068704700004C00002013
:100DA0000448054900684968044AC1F30221515CBE
:100DB000C84070474C0000200010024086440008E4
:100DC0000448054900684968044AC1F3C221515CDE
:100DD000C84070474C0000200010024086440008C4
:100DE00012A185B00FC98DE80F0014A0144A006845
:100DF00004905168134801F00C03042B10D0082B09
:100E00000ED1C1F38343C9031DF803000AD551680D
:100E100004AAC1F34041515C0A4A5043B0FBF1F0CF
:100E200005B0704708494843FAE70000020304058B
:100E3000060708090A0B0C0D0E0F10100102000026
:100E40000010024000127A0000093D002DE9F84F21
:100E500004460078B94DC00748D06868C0F38100E7
:100E6000012807D06868C0F38100022809D16868AA
:100E7000C00306D52868800338D5606800286FD085
:100E800034E06068B0F5803F0BD010B1B0F5A02F12
:100E900011D0286820F480302860286820F4802051
:100EA00002E0286840F480302860606888B1FFF76D
:100EB0008BFD064609E0286840F480202860F0E7B2
:100EC000FFF782FD801B642875D828688003F7D55A
:100ED0000CE0FFF779FD064605E000BFFFF774FD63
:100EE000801B6428F0D828688003F7D42078944EBB
:100EF00080074FF001094FF000083BD5686810F0FB
:100F00000C0F07D06868C0F38100022809D1686817
:100F1000C00306D42868800714D5206901281FD192
:100F200010E02069B0B1C6F80090FFF74DFD07460C
:100F300005E000BFFFF748FDC01B0228C4D82868A1
:100F40008007F7D52868616920F0F80040EAC10001
:100F500028600FE0C6F80080FFF736FD074606E080
:100F6000E9E000BFFFF730FDC01B022823D8286846
:100F70008007F7D4207800072CD57248A169D9B131
:100F8000C0F80090FFF720FD074604E0FFF71CFDC6
:100F9000C01B02280FD8686A8007F7D56A484FF44B
:100FA000FA510068B0FBF1F0009000BF0098411EBC
:100FB0000091FAD20EE080E0C0F80080FFF704FD57
:100FC000074604E0FFF700FDC01B022875D8686AD9
:100FD0008007F7D42078400760D5E8690027C00073
:100FE00008D4E86940F08050E861E869012700F022
:100FF0008050009055480168C90513D401688346A4
:1010000041F480710160FFF7DFFC824606E000BF1B
:10101000FFF7DAFCA0EB0A0064284ED8DBF80000EA
:10102000C005F5D5E06801280AD008B1052813D01D
:10103000286A20F001002862286A20F0040002E0FB
:10104000286A40F001002862E06841F2883B98B1CC
:10105000FFF7BAFC82460BE0286A40F004002862E1
:10106000EEE700BFFFF7B0FCA0EB0A0159455AD8E4
:10107000286A8007F6D50CE0FFF7A6FC824605E05B
:10108000FFF7A2FCA0EB0A0159454CD8286A80075B
:10109000F6D41FB1E86920F08050E861E06988B3B8
:1010A0006968C1F38101022945D00228C6F8608031
:1010B00004D0FFF789FC044638E034E0FFF784FCF5
:1010C000074604E0FFF780FCC01B02282BD82868E5
:1010D0008001F7D4206AB0F5803F05D16868A16827
:1010E00020F4003008436860D4E9080108436968C7
:1010F00021F4741108436860C6F86090FFF764FC3F
:10110000044606E015E000BFFFF75EFC001B022866
:1011100009D828688001F7D50BE000BFFFF754FC21
:10112000001B022802D90320BDE8F88F286880013F
:10113000F4D40020F8E70120F6E700000010024098
:1011400000004242800442424C00002000700040F7
:1011500070B5040005D00025A56294F8510010B1C7
:1011600004E0012070BD204600F034F8022084F82D
:1011700051002068016821F040010160D4E90101BB
:101180000843D4E903121143084361690843218BE2
:1011900001F400710843E1690843216A0843A16A28
:1011A000084321680860A069042101EA1040616ACF
:1011B0000843216848602168E06A08612068C169C5
:1011C00021F40061C1616565012084F851000020AF
:1011D00070BD000010B50068124986B088421ED16B
:1011E0001148C16941F48041C161C0690F4C00F4EC
:1011F000804004904FF42040009002200190032092
:10120000039069462046FFF7FBFA00214FF4804027
:10121000CDE90001029169462046FFF7F1FA06B0D8
:1012200010BD00000038004000100240000C0140DA
:101230002DE9F84F044690F8500000260A9F9A4680
:1012400093460D464FF0010801280ED0012084F886
:101250005000FFF7B9FB814694F8510061680128FE
:101260000CD0B1F5827F07D102E00220BDE8F88FF3
:10127000A16809B9042801D00226BDE055B1BBF12F
:10128000000F07D0BAF1000F04D094F851000128E4
:1012900002D004E00126AFE0052084F851000020D0
:1012A0006065C4F838B0A4F83EA0A4F83CA025635B
:1012B000A4F836A0A4F834A0206460642068016813
:1012C000490603D4016841F040010160E068B0F5CF
:1012D000006F606804D0E8B3E08E01283BD06AE07C
:1012E00010B1E08E01282ED1216835F8020BC860BC
:1012F000E08E401EE08626E0B8F1000F0DD0E08EB3
:1013000058B120688168890707D535F8021BC1608C
:10131000E08E401EE0864FF00008E08F58B1206854
:101320008168C90707D0C0682BF8020BE08F401E08
:10133000E0874FF00108781C05D0FFF745FBA0EBD4
:101340000900B84246D2E08E0028D5D1E08F0028AF
:10135000D2D136E0FFE7216815F8010B0873E08E63
:10136000401EE08627E000BFB8F1000F0DD0E08EF0
:1013700058B120688168890707D515F8011B0173EA
:10138000E08E401EE0864FF00008E08F58B12068E4
:101390008168C90707D0C0680BF8010BE08F401EB9
:1013A000E0874FF00108781C05D0FFF70DFBA0EB9C
:1013B0000900B8420ED2E08E0028D5D1E08F002877
:1013C000D2D13B46012202212046CDF8009000F008
:1013D0006BFB08B103260FE04A463946204600F071
:1013E0004DFB18B101262020606505E0A06818B902
:1013F0002068C16880680090012084F851000020B6
:1014000084F85000304631E74FF0E02104280869A5
:1014100003D020F004000861704740F00400FAE7B0
:10142000704710B5401EB0F1807F01D3012010BD80
:101430004FF0E02460610F21601700F0ABF900204D
:10144000A06107202061002010BD10B5FFF7E8FF64
:1014500010BD704770B5026804461068D1685369C2
:1014600010F00F0F50D003F0010501F490763543D2
:101470005DD0C20705D0CA0503D5E26B42F0010278
:10148000E263420705D5DA0703D0E26B42F00202BD
:10149000E263820705D5DA0703D0E26B42F004026B
:1014A000E263020705D5DA0703D0E26B42F00802D7
:1014B000E263E26B002A33D0800604D5880602D5A9
:1014C000204600F0E9FB20684069E16BC0F3801022
:1014D000090700D428B3204600F0D0FB20684169FA
:1014E00049061AD5416921F040014161606BA0B104
:1014F0001B494163606BFFF749F8002810D0606B0F
:10150000416BBDE870400847830610D58B060ED5A9
:101510002046BDE8704000F0BFBB2046FFF799FFB2
:1015200070BD2046FFF795FF0020E06370BD030605
:1015300006D50B0604D52046BDE8704000F0B0BCCF
:101540004006F3D54806F1D5D168204621F0400188
:10155000D160202184F8391000F0C8F870BD000077
:101560006D1C000870B5040004D094F83900002503
:1015700010B106E0012070BD84F83850204600F01C
:1015800023F8242084F839002068C16821F4005130
:10159000C160204600F0CCFB2068016921F4904135
:1015A00001612068416921F02A0141612068C16818
:1015B00041F40051C160E563202084F8390084F8CB
:1015C0003A00002070BD000010B50068154986B0D3
:1015D000884225D11448816941F480418161806944
:1015E000124C00F4804004904FF4007000900220F0
:1015F00001900320039069462046FFF701F900217E
:101600002015CDE90001029169462046FFF7F8F860
:10161000002211462520FFF76BFA2520FFF75CFA20
:1016200006B010BD00380140001002400008014023
:1016300070472DE9F843044690F839001F461646D6
:101640000D46202850D1A5B19EB194F8380001284C
:101650004AD0012084F838004FF00008C4F83C80DC
:10166000212084F83900FFF7AFF9A6848146E6848B
:1016700026E00120BDE8F883E08C401EE084A068ED
:101680004B46B0F5805F4FF000024FF080012046DE
:10169000009703D000F035FCE8B90DE000F031FC14
:1016A000C8B928882168C0F308004860206908B1DB
:1016B0006D1C05E0AD1C03E0216815F8010B4860C6
:1016C000E08C0028D8D14B460022402120460097CC
:1016D00000F017FC08B10320CCE7202084F8390083
:1016E00084F838800020C5E70220C3E77047FEE792
:1016F0003EB50F4800240D498460C4604461016018
:10170000012505614FF460214460C161FEF766FE6A
:1017100000B1FEE7CDE90045694605480294FEF7B1
:10172000DFFD002800D0FEE73EBD000000240140A0
:101730003833002010B504490448FEF7AEFD0249D5
:10174000491E087010BD0000390000202400002050
:101750000E4810B50C4901604FF4827141600021C0
:101760008160C1604FF400720161C0E9051210226E
:10177000C0E90721416281620A21C162FFF7E8FCEA
:10178000002800D0FEE710BD00380040683300207C
:10179000FEE770470907090E002806DA00F00F007F
:1017A00000F1E02080F8141D704700F1E02080F87F
:1017B00000147047704700002DE9F04100222B49CA
:1017C0002B4801F061FD30B1BDE8F04140F253110A
:1017D00028A000F068BC2A482AA100F50075A8617D
:1017E0004FF40070E86105F1200001F077FE264C0F
:1017F0000028607037D14FF48057244901F1200050
:1018000001F0B4FE607040BB687A30B3A869206113
:10181000FEF798FC30B12069FEF794FC82B23B469B
:10182000216907E0194809300646FEF78BFC82B2B1
:101830003B4631461648FFF7FCFE287AC00605D520
:101840003B46072213A11248FFF7F3FE3B46022254
:1018500012A10F48FFF7EDFECFE7BDE8F0410B48BE
:10186000203001F0CCBBBDE8F08100003900002041
:10187000940000202E2E5C5372635C73642E630010
:10188000F02000202F00000000000020F0220020A7
:10189000C033002020205B4449525D000D0A000047
:1018A00070B50546512000F0A1F878B9FF2000F08E
:1018B00057F900244FF6FF7600F0F0F8641CA4B24C
:1018C000FE2801D0B442F7D3B44201D3052070BD45
:1018D00000244FF4007600BF00F0E0F82855641CA7
:1018E000A4B2B442F8D3FF2000F03AF9FF2000F090
:1018F00037F9002070BD70B50546582000F076F825
:1019000038BBFF2000F02CF9FE2000F029F900245C
:101910004FF40076285D00F023F9641CA4B2B442B1
:10192000F8D3FF2000F01CF9FF2000F019F900F0B7
:10193000B5F8052181430CD100244FF6FF7500F066
:10194000ADF8641CA4B2FF2801D0AC42F7D3AC427E
:1019500001D3062070BD002070BD000070B5154693
:101960000E46044600221949194801F08DFC10B1B9
:1019700040F2251107E012222146164801F0B6FC7C
:1019800030B140F22B11BDE8704013A000F08BBBCA
:101990001448C1680F4801F044FB134C2A4604F177
:1019A0000803A0700020A06031460A4801F05DFEE7
:1019B000A070A16801B120B14FF49A7106A000F0A7
:1019C00072FBBDE87040034801F004BB3900002001
:1019D00094000020C41000202E2E5C5372635C73B0
:1019E000642E6300C42000200000002070B504466F
:1019F0000D46000607D504F07F0400217720FFF78D
:101A0000F5FF012836D81C4E012208213046FEF78A
:101A1000D5FFFF2000F0A4F8002208213046FEF791
:101A2000CDFFFF2000F09CF8204600F099F8280E2A
:101A300000F096F8C5F3074000F092F8C5F30720D0
:101A400000F08EF8E8B200F08BF80120402C02D0B4
:101A5000482C02D002E0952000E0872000F080F8BA
:101A60005FF00A0400F01AF8010603D5641E14F0B2
:101A7000FF04F7D170BD00000008014038B50B46E7
:101A8000009204460022802100F00EF8002804D0C5
:101A9000606D40F020006065032038BDFF2000F03D
:101AA0005FB8FF2000F05CB82DE9F0411D461746F5
:101AB0000E460446DDF8188035E0681C33D02DB1A1
:101AC000FEF782FFA0EB0800A8422CD320684168F3
:101AD00021F0E00141606068B0F5827F0BD1A06821
:101AE000B0F5004F02D0B0F5806F04D120680168D6
:101AF00021F040010160A06AB0F5005F0AD12068C2
:101B000001684DF6FF72114001602068016841F4E0
:101B100000510160012084F85100002084F8500039
:101B20000320BDE8F0812068806836EA000004D018
:101B30000020B842C1D10020F3E70120F9E770B5D9
:101B400000244FF6FF75FFF7A9FF641CA4B2FF281D
:101B500001D0AC42F7D3AC4200D3012070BD0000ED
:101B600001B582B000208DF804004FF48050009041
:101B7000012301AA02A90648FFF75AFB28B1002257
:101B80004FF400510348FEF719FF9DF804000EBD05
:101B90006833002000100140704710B5FEF71AFFAF
:101BA000BDE81040FFF751BC30B593B001210804E7
:101BB000CDE900100025029502240491CDE90740EB
:101BC0004FF4E01009906846FFF740F900B1FEE7D6
:101BD0000AA90F2081E831004FF48060CDE90D059E
:101BE00002210AA8FFF72CF800B1FEE74FF40040ED
:101BF00011900F940FA8FEF7ADFF00B1FEE7FFF7BD
:101C0000C9F84FF47A71B0FBF1F0FFF70AFC042039
:101C1000FFF7FAFB00221146501EFEF769FF13B0D2
:101C200030BD00000D48016841F0010101604168CC
:101C30000B4A1140416001680A4A11400160016885
:101C400021F480210160416821F4FE0141604FF4DC
:101C50001F0181600449C003086070470010024002
:101C60000000FFF8FFFFF6FE08ED00E010B5406A47
:101C70000021C185C184FFF7ECFB10BD0168CA6873
:101C800022F49072CA6001684A6922F001024A6136
:101C9000202180F83A10704710B590F83A102229A8
:101CA00001D0022010BD8168B1F5805F11D00169BB
:101CB000002901681FD0496801F07F03816A4A1C2E
:101CC00082620B70C18D491E0904090CC18518D0B0
:101CD0002BE00269816A002A0268526805D0D2B2FC
:101CE0000A80816A491C8162ECE7C2F308020A801B
:101CF000816A891CF7E74A68816A4B1C83620A7013
:101D0000E0E70168CA6822F02002CA600168CA6878
:101D100022F48072CA6001684A6922F001024A61B5
:101D2000202180F83A10FFF783FC002010BD00004E
:101D30002DE9F041044600680169E26821F4405150
:101D4000114301612169A068084361690843216862
:101D5000CA6841F20C639A430243CA602068416931
:101D6000A26921F44071114341614C492068642506
:101D7000322688423CD1FFF723F800EBC00101EB8B
:101D8000001061688900B0FBF1F7FFF719F800EB6C
:101D9000C00101EB00106168B0468900B0FBF1F0B2
:101DA000B0FBF5F06FF01801484307EB800106EB3C
:101DB0000110B0FBF5F000F0F006FFF701F800EBC2
:101DC000C00101EB001061688900B0FBF1F0B0FBCD
:101DD000F5F006EB0016FEF7F3FF00EBC00101EB98
:101DE000001061688900B0FBF1F7FEF7E9FF3BE006
:101DF000FEF7D6FF00EBC00101EB0010616889001F
:101E0000B0FBF1F7FEF7CCFF00EBC00101EB0010D7
:101E10006168B0468900B0FBF1F0B0FBF5F06FF0FF
:101E20001801484307EB800106EB0110B0FBF5F009
:101E300000F0F006FEF7B4FF00EBC00101EB00106C
:101E400061688900B0FBF1F0B0FBF5F006EB00161D
:101E5000FEF7A6FF00EBC00101EB001061688900EE
:101E6000B0FBF1F7FEF79CFF00EBC00101EB0010A7
:101E700061688900B0FBF1F0B0FBF5F06FF018017C
:101E8000484307EB800108EB0110B0FBF5F0216837
:101E900000F00F0030448860BDE8F0810038014058
:101EA00090F83910212901D0022070478168B1F5DE
:101EB000805F016A0BD04A1C026202680978516097
:101EC000C18C491E0904090CC1840ED017E0098891
:101ED0000268C1F30801516001690029016A02D05A
:101EE000491C0162ECE7891CFBE70168CA6822F023
:101EF0008002CA600068C16841F04001C1600020F2
:101F000070472DE9F041984617460E460446069D57
:101F10001DE0681C1BD02DB1FEF756FDA0EB08009C
:101F2000A84214D92068C16821F4D071C16020682A
:101F3000416921F001014161202084F8390084F8D1
:101F40003A00002084F838000320BDE8F0812068C2
:101F5000006836EA000004D00020B842D9D0002042
:101F6000F3E70120F9E700000148FFF773BA00002A
:101F7000C033002010B54FF48053112208A10D4842
:101F8000FFF757FB0220FEF729FC02F0CDF80A49C3
:101F900018B9087820F001000870087810BD00001A
:101FA000555345525F696E697469616C697A650D54
:101FB0000A000000C03300202000002010B508B146
:101FC000042010BD0C480078C00701D0032010BDCC
:101FD000012439B102290BD05FF00404FFF761FD41
:101FE000204610BDFFF7ABFDFF28F7D10024F5E731
:101FF0004FF400701080F9E72000002010B50C4667
:1020000030B92BB10D480078C00703D0032010BDB4
:10201000042010BD0A480078400700D45202012B6A
:1020200003D0FFF73EFD012010BD11462046FFF70B
:1020300037FCFFF736FD002010BD00002000002017
:102040000000002008B10120704701480078704767
:102050002000002010B50C4630B92BB10F48017894
:10206000C90703D0032010BD042010BD007840072D
:1020700001D5022010BD0A480078400700D4520262
:10208000012B03D0FFF70DFD012010BD11462046A6
:10209000FFF731FCFFF705FD002010BD20000020F8
:1020A00000000020FEE7FEE70FB4084B10B504A9BE
:1020B00002AA039800F01CF8044602A9002000F0D0
:1020C00048FA204610BC5DF814FB000053250008B8
:1020D00002E008C8121F08C1002AFAD170477047F1
:1020E000002001E001C1121F002AFBD1704700004F
:1020F0002DE9FF4F8DB00F460546002606E0252846
:102100000BD0DDE90F1290476D1C761C2878002853
:10211000F5D111B03046BDE8F08F0024A246A146AB
:102120000122EC4900E0044315F8013F203B02FA8C
:1021300003F00842F7D128782A2810D06FF02F0238
:102140002878A0F13001092914D80AEB8A0102EBA2
:10215000410144F0020400EB010A6D1CF0E701CFDD
:102160005FEA000A03D544F40054CAF1000A44F0BF
:1021700002046D1C28782E2817D115F8010F44F0A1
:1021800004042A280ED06FF02F022878A0F1300125
:1021900009290AD809EB890102EB410100EB010989
:1021A0006D1CF2E757F8049B6D1C28786C280FD043
:1021B00006DC4C2817D068280DD06A2814D104E01A
:1021C000742810D07A280FD10DE044F400140AE0EE
:1021D00044F4801401E044F440146978814202D14F
:1021E00004F580146D1C6D1C2A786E2A1FD00CDC3F
:1021F000632A31D004DC002A8BD0582A11D1A3E005
:10220000642A68D0692A0CD165E0732A2ED004DCD8
:102210006F2A73D0702A04D19BE0752A6FD0782A78
:102220006ED01046DDE90F129047761C50E1C4F3E2
:102230000250022806D0032809D0042801CF09D073
:10224000066045E101CFF117C0E9006140E101CF2F
:1022500006803DE106703BE117F8040B8DF80000A5
:1022600000208DF80100EB46012003E057F804BB85
:102270004FF0FF3061074FF0000102D40DE008F18C
:102280000101884649450FDA8045F8DB1BF8081044
:102290000029F4D108E008F1010188468142FADB07
:1022A0001BF808100029F6D1DDE90F23AAEB08007E
:1022B0008146214600F036F9304400EB080604E080
:1022C000DDE90F121BF8010B9047B8F10108F7D2B6
:1022D00021464846F7E00A21C4F302534FF0000BB1
:1022E0000891022B04D001CFC117032B09D00AE0BB
:1022F000FF1D27F00707F7E8020108E032E01FE0C2
:1023000020E000B2C117042B01D140B2C117031E57
:1023100071F1000307DA4FF0000CD0EB0C006CEB0E
:1023200001012D2302E0230504D52B238DF8243051
:10233000012303E0E30701D02023F7E7984658E0A4
:102340000A2110E010210EE010204FF0000B089041
:102350000CE010214FF0000B44F004044FF008098A
:10236000089103E008214FF0000B0891C4F30253D9
:10237000022B04D001CF0021032B06D006E0FF1D65
:1023800027F00707F7E8020103E080B2042B00D131
:10239000C0B24FF0000823072BD5702A07D0DDF814
:1023A00020C08CF0100C5CEA0B0C05D00EE0402332
:1023B0008DF82430012308E050EA010306D03023D1
:1023C0008DF824308DF8252002239846DDF820C0B2
:1023D0008CF0080C5CEA0B0C0BD150EA010301D124
:1023E000630706D530238DF824304FF00108A9F19A
:1023F0000109582A04D038A20B9208AA0A920BE0CD
:102400003AA2F9E75B46089AFDF7A3FE0B9B9B5C9B
:102410000A9A521E0A92137050EA0102F2D10A98E7
:10242000ADEB000000F1200B600702D524F48034EE
:1024300001E04FF00109D94502DDA9EB0B0000E0F6
:10244000002000EB0B0141440890AAEB010AE003D5
:1024500006D4DDE90F232146504600F063F8064418
:102460004FF0000908E009A911F80900DDE90F1291
:10247000904709F10109761CC145F4DBE0030CD556
:10248000DDE90F232146504600F04CF8064404E0F5
:10249000DDE90F1230209047761C0899481E0890FD
:1024A0000029F5DC08E00A980A990078491C0A918D
:1024B000DDE90F129047761CBBF10001ABF1010B77
:1024C000F1DC21465046DDE90F2300F019F80644FF
:1024D0006D1C1BE6092801003031323334353637A4
:1024E0003839616263646566000000003031323360
:1024F0003435363738394142434445460000000000
:102500002DE9F041044600251E461746880404D4F0
:1025100005E039462020B0476D1C641EF9D52846D9
:10252000BDE8F0812DE9F041044600251E469046A5
:10253000C80301D5302700E02027880404D505E032
:1025400041463846B0476D1C641EF9D52846BDE8A3
:10255000F0810A68531C0B601070704710B5044678
:1025600000F5805000220271521EC262204601F026
:10257000FDFC08B1032010BDB4F8FE01A0F52A410E
:10258000553901D0022010BD94F83600B4F8371048
:1025900040EA01210848B0EB012F08D094F852100E
:1025A000B4F8532041EA0221B0EB012F01D1002001
:1025B00010BD012010BD00000046415400E0401C49
:1025C00002780AB18A42FAD1D0B27047F0B500223F
:1025D000174B144600F5805002EB420653F8265084
:1025E0006DB10768BD420BD103EB860587686E6845
:1025F000BE4205D12D89C688B54204D000E0012431
:10260000521C022AE8D3022A01D079B904E05CB94D
:10261000022909D01220F0BD02EB420003EB80003A
:102620004089B0F5807F01D00020F0BD1020F0BDC2
:102630001435002030B50021064A0C4601EB410359
:1026400052F82350854201D142F82340491C022907
:10265000F4D330BD1435002000F58050426A006884
:1026600000F58050438980784343B1FBF3F0121D9D
:1026700002CA19B1884203D3401AF8E70020704714
:1026800011680844704700F58050891E4269921E07
:102690008A4201D800207047826A807801FB0020BE
:1026A00070472DE9F04180460F0000F5805407D0B7
:1026B000404601F097FA022809D20120BDE8F081D6
:1026C000E66816B16069B04207D8012605E0411CF2
:1026D000F4D061698142F1D83E46354660696D1C8F
:1026E000A84202D80225022E0AD32946404601F00C
:1026F00079FA38B1411CE1D00128DFD0B542EDD1E3
:102700000020DBE76FF070422946404601F04AFCAA
:1027100030B957B12A463946404601F043FC20B152
:1027200001280DD001252846C8E7E5602069411C35
:10273000F9D0401E2061607940F001006071F2E73D
:102740004FF0FF35EFE700002DE9F84F88460D68A0
:1027500000E06D1C29782F29FBD05C29F9D000F509
:10276000805A0024DAF820702646A85D761C2028BE
:1027700017D32F2815D05C2813D0FF2C31D201217C
:1027800001F056F85FEA00092BD0B9F1800F04D2AE
:10279000014668A0FFF712FF18BB27F81490641CCD
:1027A000E3E7AA19C8F80020202801D2042516E082
:1027B000002514E007EB440030F8020C20280DD06F
:1027C0002E280BD06CB1002027F814000B222021FA
:1027D000DAF8180001F0C3FB002606E0641E002CA6
:1027E000E8D10620BDE8F88F761C37F816002028BF
:1027F000FAD02E28F8D01EB145F0030500E0641E83
:102800002CB107EB440030F8020C2E28F7D1002041
:1028100081464FF0080B009037F8160006F10106CC
:102820005FEA000824D0B8F1200F04D0B8F12E0FD1
:1028300004D1A64202D045F00305EDE700985845C3
:1028400001D2A6421AD1BBF10B0F0FD0A64201D084
:1028500045F003050CD84FF0080000904FEA89605E
:1028600026464FF00B0B4FEA1069D5E745F00305FC
:10287000DAF818000178E52938D039E04046B8F197
:10288000800F10D3002100F0D3FF5FEA000805D0CD
:102890002B4901EB080010F8800C804645F002053A
:1028A000B8F1000F04D0014626A0FFF787FE20B143
:1028B0004FF05F0845F003050FE0A8F1410019282B
:1028C00002D849F0020908E0A8F16100192804D8EB
:1028D000413049F001091FFA80F8DAF81820009910
:1028E00002F801800098401C009095E705210170D6
:1028F000BBF1080F03D14FEA89604FEA1069C9F3B1
:102900008100032803D06FEA0901890701D145F04E
:102910000205A90709D409F00301012901D145F0F5
:102920001005012801D145F00805DAF81800C57234
:10293000002057E7222A3A3C3E3F7C7F00000000FF
:102940004E4900082B2C3B3D5B5D0000401E0228D9
:1029500015D20C4B00EB400203EB82014889B0F525
:10296000807F05D008B1401E80B2488110B104E0DC
:102970000020FAE7002043F82200002070470220E0
:1029800070470000143500202DE9F14F82B000217E
:10299000029800F087FA00287AD1029DFF2005F501
:1029A00080554FF6FF7A00908146A5F824A029694A
:1029B000286801F0DBFA06000DD16C69207848B177
:1029C000E17AE52801F03F016DD00A0704D50F290F
:1029D00069D107E0042671E00F2903D0B9F1000F97
:1029E0004AD04FE0296A89B3420606D5627B00923D
:1029F00020F04000EA888146AA84484535D1627BB0
:102A00000098824231D101912078A04620F0400008
:102A1000401E00EB80010027DFF8A8B001EBC006E4
:102A2000012400BF1BF8071001EB0800008874B1F7
:102A300000F01AFF0446FF2E17D2019830F8160056
:102A4000761C00F011FFA0420FD102E02FE05045AC
:102A50000BD17F1C0D2FE5D398F80000400608D558
:102A60003CB1019830F8160018B1FF2000F0FF09C2
:102A70001DE0A9F10100F9E7204601F05DFC009995
:102A800088421BD0A869C17AC9070CD10A2102E08B
:102A900015E0491E06D314F8012B10F8013BD21A99
:102AA000F7D000E052B14FF0FF09A5F824A00021B3
:102AB000029800F009F806003FF479AF3046BDE80F
:102AC000FE8F0000CE4900082DE9F04100F580544A
:102AD0000F46E688761C3004000C38D0216991B38B
:102AE000206800F5805253895B09B6FBF3F503FBC0
:102AF0001563002B67D1491C2161E16821B353891B
:102B000092785B09B6FBF3F3521E13425BD101F0DE
:102B100069F8054601281FD9681C39D0206841F2A0
:102B200014010958A94248D86FB1E168FFF7B9FD0F
:102B300005000FD0012D0FD0681C29D0206801F0AE
:102B40005CFC28BB0AE002E01089B0423BD80420BC
:102B5000BDE8F0810720FBE70220F9E741F20A0116
:102B600020680A5A002101F0FAF929462068FFF787
:102B70008AFD2168002701F580514FF00108C862E5
:102B80000FE000BF80F80480206801F036FC08B137
:102B90000120DDE7206800F58050C16A491C7F1CD8
:102BA000C162206800F580508178B942EAD8216876
:102BB00001F58051C96AC91BC162E56029462068D8
:102BC000FFF761FD2061E68041F20A012068095AA1
:102BD0004909B6FBF1F201FB126100EB41106061A3
:102BE0000020B5E72DE9F35FFF248346274604263E
:102BF0004FF6FF784FF0000900F5805567E0286830
:102C000001F0B4F9060066D16869017881B1C27A31
:102C1000E52902F03F0209D02E2907D022F0200337
:102C2000082B07D0B446019B9C4506D0FF2440E00A
:102C3000042650E04FF0010CF5E70F2A01D0ACBBA1
:102C40003EE04A0605D5477B21F04001EA880C4664
:102C5000AA84A1422BD1417BB94228D10178DFF867
:102C600080A001F03F01491E01EB810202EBC1018E
:102C70000022D5F820C001261AF8023003441B8830
:102C800036B1FF2913D22CF811301E46491C01E041
:102C900043450CD1521C0D2AEED30078400603D5D3
:102CA000FF2904D22CF81190641E01E00CE0FF24EF
:102CB000E4B200215846FFF707FF060007D00AE0FC
:102CC00001F03AFBB84208D0A5F8248005E0296954
:102CD000002994D10EB1C5F810903046BDE8FC9F94
:102CE000CE4900082DE9F14F84B00C22049C6846BF
:102CF00004F58054A769266A394601F027F99DF842
:102D00000B00C00718D00020F872012520622B4666
:102D100032466946384600F025FF0498FFF734FE36
:102D200010B96D1C642DF2D3642D0BD004280AD188
:102D30009DF80B00F87226629DF80B0080070FD5F6
:102D4000002004E0072005B0BDE8F08F401C36F8F5
:102D500010100029FAD10D211930B0FBF1F600E076
:102D60000126049D0021284600F09CF8A8B94FF0E8
:102D7000000805F580573969386801F0F7F860B93F
:102D800078690078E5280BD050B14FF00008012198
:102D90002846FFF799FE0028EDD0042812D012E053
:102DA00008F101083046B045F1D1461E5FEA060A37
:102DB00059D0E1880498A1EB0A0100F073F80500EE
:102DC00003D06BE00720054668E0A06901F0B4FA83
:102DD00003902169206801F0C9F805005ED161699E
:102DE000D4F82090039848730F20C872002008730D
:102DF00088760AF0FF0BC876ABF1010000EB800289
:102E000002EBC00500234FF6FF7E254E4A1C01E071
:102E1000604503D039F81500F4466D1CF75CC855C1
:102E200016F80380070A08F8027000B960465B1CB8
:102E30000D2BEDD3704502D039F8150008B94BF0D1
:102E4000400B81F800B02168012001F58051087124
:102E500000210498FFF738FE05001FD1AAF10100F8
:102E60005FEA000AB5D12169206801F07FF805000A
:102E700014D120220021606901F071F8D4E9050124
:102E80000B2201F063F8A0696169C07A00F01800B4
:102E900008732168012001F580510871284652E726
:102EA000CE49000870B500F580540D46E180A36856
:102EB000012B42D0206800F58050416999423CD9ED
:102EC00023B90178032906D1436A23B14189807867
:102ED0004E09464312E00189A9422ED9406A13E007
:102EE00000F080FE0346401C25D0022B25D320682D
:102EF00000F58050406998421FD9AD1B2068B5424B
:102F00001946EDD2FFF7BFFBE360B0B121680A4676
:102F100001F580514B895B09B5FBF3F3184420613F
:102F200048894009B5FBF0F100FB115002EB40105D
:102F30006061002070BD012070BD022070BD0000E6
:102F4000084910B50B5C002253B901220A540A1833
:102F500001EB8000127A40680168104688470246FB
:102F6000104610BD2C37002030B4054C231804EB5C
:102F700080001B7A406804691846A44630BC60474C
:102F80002C37002030B4054D2C1805EB8000247A36
:102F9000406885682046AC4630BC60472C3700202E
:102FA000044A111802EB8000097A4068426808461A
:102FB000104700002C37002030B4054D2C1805EBCD
:102FC0008000247A4068C5682046AC4630BC604723
:102FD0002C37002010B5044600F0F6FA00280DD179
:102FE000204601F033FA002808D104F58054A06A85
:102FF000FFF7ACFC002801D10021216010BD10B505
:10300000044601F023FA00280AD104F58054E1694E
:1030100021B10846FFF79AFC002801D10021216068
:1030200010BD2DE9FC5F0D46834601F00FFA5FEA03
:1030300000096FD10BF58054E07900286AD1606AED
:1030400001274FF0020A00287AD0691C32D0E068CC
:10305000A84200D20546A560002D5AD05846691EE8
:10306000FFF7FAFA6061226801461046FFF70BFB92
:1030700000287ED023686D1E03F580535E899A7800
:10308000B5FBF6F1521E11400D18A068B0FBF6F129
:1030900006FB11000028E0D0A269AA42DDD0A07989
:1030A00040063FD5587801235946FFF785FF002891
:1030B0007AD133E002C8009121698346022501B329
:1030C0000026AD1C01918846761C206800F08AFD20
:1030D000014601284DD9481C66D008F10100814203
:1030E000F1D00098854206D8CBF800600BF10400BF
:1030F000019A04C08346206800F5805040698842E8
:10310000DED8606A05600098854204D80020CBF8BC
:103110000000B7E098E04FF01109B3E0A07920F08B
:103120004000A0712068012300F580502A464078B5
:103130005946FFF727FF002836D1A561A2E0FFE737
:10314000E068A84203D2A179890700D405464FF070
:103150000008A068C4F808802DB321680A4601F56C
:1031600080518E7849894E4378B1691EB1FBF6F1E2
:1031700000E066E0401EB0FBF6F3994205D3711EF5
:103180008843A0602D1A61690CE0216949B90021CA
:103190001046FFF786FA0146012852D0481C63D03A
:1031A00021616161E9B935E05EE0A07980072068BE
:1031B00005D5FFF776FA010004D1354613E000F09B
:1031C00011FD0146481C4FD001293AD9206800F56D
:1031D00080504069884234D96161A068AD1B304499
:1031E000A060B542E1D8A06841F20A022844A0607C
:1031F0002068125AB5FBF2F302FB135252B1FFF7EB
:1032000042FAF0B1216801F580514989B5FBF1F12D
:1032100001EB00082068A16800F580504289B1FBED
:10322000F2F302FB131121B3A269424521D0A17927
:1032300049060FD5407801235946FFF7BDFE98B9DE
:1032400004E084F807A00220BDE8FC9FA07920F0EC
:103250004000A0712068012300F58050424640786C
:103260005946FFF78FFE10B1E7710120ECE7C4F873
:103270001880D4E90201884204D9E060A07940F0C6
:103280002000A0714846DFE72DE9F74181B0904664
:1032900002980090684600F079FD040003D50B20E9
:1032A00004B0BDE8F081104E002756F824502DB12F
:1032B0002846FFF7BFF905F580552F7001980028C3
:1032C00003D000BF4FF480510F5446F8240002D0C1
:1032D000B8F1010F01D00020E2E7002202A901A805
:1032E00000F0D4FADCE70000540000202DE9F74F8D
:1032F000ADF5825D98B100F580564FF0000802F000
:103300001F0741F2440127F0010269440DF5805086
:10331000C6F8008000F0BAFA040006D0D8E0092010
:1033200013B00DF5805DBDE8F08F41F228010DF579
:1033300080506944816168490162EB46416C58469E
:1033400000F0DAFB04000DF5805045690BD11DB18A
:10335000780803D0012102E0062404E00021584649
:10336000FFF734F9044617F01C0F75D04FF0010A2F
:10337000ECB1042C14D158490020183902E0401C4B
:10338000022805D200EB400251F82220002AF6D193
:10339000022803D05846FFF7A5FC00E0122004469F
:1033A0000DF5805047F00807456954B190E0E87A80
:1033B00010F0110F01D007248AE0780701D5082406
:1033C00086E0380756D500F080FCA873010AE9733F
:1033D000010C2974000E687485F80B8085F81C8038
:1033E00085F81D8085F81E800DF5805085F81F80BA
:1033F0000068294600F034FD81460021284600F08F
:1034000093FF0DF58050B9F1000F006800F5805072
:1034100080F804A02CD00DF580504946006800F5D6
:103420008050D0F82CA00DF58050006800F049FEC7
:1034300004004DD10DF58050A9F10101006800F59F
:103440008050C1600DF580505146006800F08EFD3F
:1034500004000BD03CE0FFE7D4BBE87AC10601D5FD
:10346000042435E0B90701D5C007A4D1380701D538
:1034700047F020070DF58050006800F58050C06AC5
:10348000C6E90705780801D0012100E0002158466F
:1034900000F09AFCB062E8B1B7710DF5805086F883
:1034A000078047460068294600F0DAFC3061287F33
:1034B000D5F81D1040EA0120C6E90270B7610DF58C
:1034C000805077620068306000F58050C088B0801E
:1034D000204625E70224FBE72C350020F3B585B014
:1034E00006000BD0002206A9684600F0CFF90500BF
:1034F0004FF0000706F5805403D032E0092007B0F2
:10350000F0BD0098206001A8A061174820623046F5
:10351000069900F0F1FA050013D1616931B1C87A5A
:10352000C0061DD5009800F09BFCA060009800210B
:1035300000F58050C088A0803046FFF7B3FC05003E
:1035400002D0042D0CD00CE0A06838B10021304628
:1035500000F03AFCE06128B9122502E0E76101E0E1
:10356000052527602846CAE72C350020FEB50F4602
:10357000054600F06BFF00281BD1DFB105F5805434
:103580001048C4F818D0206200212846FFF72AFB13
:103590000026042813D000280BD13946284600F015
:1035A00096FB00212846FFF78FFA042801D100205E
:1035B0002661FEBD00212846FFF774FCFEBD266192
:1035C000EBE700002C35002070B5054600F03EFF0B
:1035D000002811D105F58054A1798A060CD548063A
:1035E0000FD52068012300F5805029464078A26954
:1035F000FFF7E2FC08B1012070BDA07920F0400087
:10360000A071E169206800F0B1FC0028F4D1256ABE
:10361000E87A40F02000E872207B2877A089000A31
:103620006877E068000CA877E068000EE877284625
:10363000216900F079FE00F048FBA875010AE975E0
:10364000010C2976000E68760020A874E874A07931
:10365000012120F02000A071206800F58050017148
:103660002068BDE8704000F074BE2DE9FC5F88461C
:103670000021994615468346196000F0E7FE0028B0
:1036800008D10BF58054E079002803D1A079800798
:1036900002D40720BDE8FC9FA068012741194FF024
:1036A000020A81427AD3B5E02068A168024600F59B
:1036B00080504389B1FBF3F603FB1616002E6ED142
:1036C000B1FBF3F38078401E034013F0FF0618D1DE
:1036D00029B1606A38B15846FEF7BEFF07E020699D
:1036E00038B9002100E061691046FEF7DAFF0028D2
:1036F00054D0012833D0411C62D06061216901B9E6
:103700002061A07940060DD52068012300F5805086
:1037100059464078A269FFF74FFCF0BBA07920F032
:103720004000A07161692068FEF7ADFFB8B1304478
:103730000190206800F580504189B5FBF1F10091BE
:1037400071B3721881788A4201D9891B0091DDE931
:10375000003240784146FFF72FFCF0B903E084F8CF
:1037600007A0022096E7A1690198081A00998842EB
:103770000CD2216801F580514A8900FB028158462C
:1037800000F0E4FBA07920F04000A071206800F573
:10379000805046890098464332E011E03DE014E055
:1037A000FFE7A169019A91420DD0D4E9021291423A
:1037B00009D2407801235946019AFFF7E3FB10B183
:1037C000E771012066E70198A0612068A16800F513
:1037D00080504089B1FBF0F200FB1212861AAE4213
:1037E00000D92E46B1FBF0F200FB121101EB0B00E9
:1037F0003246414600F0AAFBA07940F04000A0719B
:10380000A068B0443044A060D9F80000AD1B30443B
:10381000C9F80000002D7FF447AFD4E902018842C7
:1038200000D9E060A07940F02000A071002031E7CD
:10383000802804D30B4A51B1FF2801D900207047DA
:1038400002EB4000A0F58050B0F8000F704732F84E
:103850001130834203D0491C89B28029F7D38031CB
:10386000C8B270478E4400080021064B00E0491C96
:1038700033F81120002A04D08242F8D1024830F8EF
:10388000110070478E4500086E4700082DE9FF5F64
:103890004FF0000B0546C0F800B01746084600F090
:1038A00075FA060003D50B2004B0BDE8F09F8F48E1
:1038B00050F826409CB12C6004F58055287820B142
:1038C0006878FFF76DFBC1070BD085F800B0F0B248
:1038D0006870FFF735FBC10708D00320E4E70C2030
:1038E000E2E70FB1400704D40020DDE71FB1400735
:1038F00001D50A20D8E741F20A016218687802214E
:10390000FFF732FB78BB6889B0F5007F34D3B0F5A0
:10391000805F31D8002631462046FEF71FFE012881
:1039200026D100204FEA0D0204EB001191F8C231BC
:1039300001F5DF712BB10B7AD1F8091043EA0121AF
:1039400000E0002142F82010401C0428ECD300279E
:103950004FEA020858F8276036B131462046FEF794
:10396000FDFD10B90AE007E002207F1C042FF1D30F
:10397000032801D0F0BB01E0012095E7B4F80B006B
:10398000B5F80AC060455FD1E18A29B994F82400EE
:10399000D4F8251040EA0121A961207C8A46E8700C
:1039A000012801D002284FD100FB01F9607BA870EB
:1039B00000B3411E084247D1B4F811104FEA5C121F
:1039C000B1FBF2F302FB131329819BB9B4F8137016
:1039D0002FB994F82030D4F8217043EA0727E389FF
:1039E00043B1B1FBF2F803EB0902424497422BD3F7
:1039F000BF1A00E028E0B7FBF0F028B3012740F63B
:103A0000F678404500D302274FF6F678404500D3BC
:103A10000327801C3244AA6233446861C5E9076306
:103A2000032F13D081B103EB09016962022F18D073
:103A300000F0010100EB400001EB5000401E60442B
:103A4000B0FBFCF151450ED90D202DE70029FBD12B
:103A500094F82C10D4F82D20800041EA02216962EC
:103A6000ECE74000EAE74FF0FF302861E860802093
:103A70006871032F2ED1208E01282BD12046711C76
:103A800000F074FA30BB85F805B0B4F8FE01A0F57B
:103A90002A4155391ED12078D4F8011040EA01207E
:103AA0001349884216D194F8E401D4F8E51140EAAC
:103AB0000120104988420DD194F8E801D4F8E911A9
:103AC00040EA0120286194F8EC01D4F8ED1140EAB5
:103AD0000120E86005492F70091F0888401C0880F4
:103AE000E8802046FEF7A6FDFEE600005400002018
:103AF000525261417272416173B505460198017875
:103B00002F2901D05C2901D1401C019005F580547A
:103B10000026A66001980078202805D200212846BA
:103B2000FFF7C0F966617CBD01A92846FEF70CFECF
:103B30000028F8D12846FEF727FFA169C97A28B1E5
:103B40000428F0D14907EED405207CBD4907FCD4F8
:103B50006169C87AC006F7D5206800F081F9A060D5
:103B6000E2E700007CB516461C4605460B2200F035
:103B7000EDF9052C11D91A4A0CE00021B61C234698
:103B8000044663F35F044008E30300D55440491C36
:103B90001029F4D330880028EFD107214FEA0D0215
:103BA00004F00F003030392800D9C01D5054491E90
:103BB0002409F5D17E205054002000E0401C8842AA
:103BC00002D22B5C202BF9D1082902D2535C491C6C
:103BD00000E020232B54401C0828F5D37CBD0000B6
:103BE000211001002DE9F0470D46074602290DD3AB
:103BF00007F580546069A84208D920784FF0FF3655
:103C0000012807D0022832D0032844D001263046AC
:103C1000BDE8F087618905EB5508B8FBF1F0216A32
:103C20000144384600F0A2F90028F0D16189B8FBC0
:103C3000F1F201FB128008F1010817F80090B8FBBF
:103C4000F1F0216A0144384600F090F90028DED1F5
:103C50006189B8FBF1F201FB1280395C49EA01206D
:103C6000E90701D00609D2E7C0F30B06CFE7608968
:103C7000216A4008B5FBF0F00144384600F076F9BF
:103C80000028C4D161896800B0FBF1F201FB120089
:103C900038440688BBE76089216A8008B5FBF0F0EC
:103CA0000144384600F062F90028B0D16189A800CB
:103CB000B0FBF1F201FB120038440178D0F80100AA
:103CC00041EA002020F07046A1E7002070472DE96E
:103CD000F04100F580500C4601F10902016971B311
:103CE000002543692E26595D6D1C202919D0052910
:103CF00000D1E521092D01D102F8016BA1F14107A5
:103D0000192F0CD81F7B092D02D34FF0100C01E0A6
:103D10004FF0080C17EA0C0F01D02031C9B202F89D
:103D2000011B0B2DDFD3D97A2172197FD3F81D50D7
:103D300041EA05212160198BA180D98AE1804FF0E9
:103D4000000882F80080A669002E1DD001690025B8
:103D5000C1B1E169B1B1818CA1F57F42FF3A11D0C7
:103D6000076A0BE00021FFF763FD18B1E169491E06
:103D7000A94201D8002505E070556D1C37F8020BEB
:103D80000028EFD106F80580BDE8F08110B50446A3
:103D90004FF0FF302268002A13D0114600E0491C82
:103DA0000B78202B0ED33A2BF9D112F8013B303B84
:103DB0000A2B06D28A4204D1002B02D1491C184694
:103DC000216010BD002010BDF0B500F580532348E0
:103DD0001C68002202EB420550F82560A64209D17A
:103DE00000EB85059F686E68BE4203D12D89DE8891
:103DF000B54202D0521C022AECD3022A18D100226A
:103E000002E0521C022A05D202EB420550F825506E
:103E1000002DF6D1022A13D002EB420540F82540CE
:103E200000EB85049E686660DB8823810023638144
:103E3000002902EB420100EB8101498902D019B14E
:103E40000020F0BD491C01E04FF4807102EB4203F9
:103E500000EB83004181501CF0BD000014350020B0
:103E6000024602F58052488B1278032A02D1898AD1
:103E700040EA01407047000008B5FCF7B3FDFDF7CC
:103E800093FE2948816941F020018161816901F037
:103E900020010091816941F004018161816901F093
:103EA00004010091816941F008018161816901F09B
:103EB00008010091416941F001014161406900221E
:103EC00000F00100009011460B20FCF711FE0B20C2
:103ED000FCF702FE164815490C2201604FF4E1314F
:103EE000416000218160C160C0E904128161C1614B
:103EF000FDF738FB00B1FEE7FDF7FAFBFDF728FC04
:103F0000FDF718FCFCF7A6F90A484078FFF718F807
:103F1000642209A10AA0FDF721FD0A20FCF75EFC3E
:103F2000FDF74AFCFEE700000010024000380140A7
:103F3000C0330020941000206E68696574646F00BF
:103F4000446174612E7478740000000004E000BFC6
:103F500011F8013B00F8013B521EF9D27047C9B27B
:103F600001E000F8011B521EFBD270472DE9F04121
:103F700000F580540746E06A0E460025B0420ED098
:103F8000384600F03AFA050009D16078012332463C
:103F90003946FEF7F7FF08B16E1E0125E662284696
:103FA000BDE8F0812DE9F04717460D460646022987
:103FB00004D306F580546069A84202D80220BDE807
:103FC000F087217807F0FF094FF0010A012924D07A
:103FD00002295DD00329F1D16089216A8008B5FBEF
:103FE000F0F001443046FFF7C1FF0028E7D16289B5
:103FF000A900B1FBF2F302FB13118A194FF07043D1
:10400000D2F8011003EA0121394311700B0A5370F1
:104010000B0C9370090ED17050E0618905EB5508C7
:10402000B8FBF1F0216A01443046FFF79FFF0028FA
:10403000C5D16189B8FBF1F201FB1280304408F16F
:104040000108E90703D0017869F31F1100E0394640
:10405000017084F804A06189B8FBF1F0216A014481
:104060003046FFF783FF0028A9D16289B8FBF2F33D
:1040700002FB13813144EA0702D0C7F3071205E0BF
:104080000A78C7F3032302F0F0021A430A7015E01E
:104090006089216A4008B5FBF0F001443046FFF723
:1040A00065FF00288BD162896900B1FBF2F302FB46
:1040B000131131443A0A81F800904A7084F804A040
:1040C0007DE72DE9F0410F468046022918D308F517
:1040D00080556869B84213D900261FE0394640462A
:1040E000FFF780FD04001CD0012C09D0601C09D012
:1040F000002239464046FFF755FF060011D103E084
:1041000002260EE001260CE02869411C05D0401C67
:104110002861687940F00100687127466869B842F3
:10412000DCD83046BDE8F0812DE9FE430122510381
:104130006948FCF743FC694D4FF0000885F80080A2
:10414000674E3020F769F0613046FDF701F8DFF87F
:104150009491012208214846FCF730FC0024FF20FE
:10416000FDF7FEFC641CE4B20A2CF8D35C48F7614E
:10417000FCF7EEFF002208214846FCF71FFC002157
:104180004020FDF733FC012802D00120BDE8FE836A
:10419000FF20FDF7E5FC4FF4D5714820FDF726FC24
:1041A0004FF48057012809D00021E920FDF71EFCBB
:1041B000012868D802202870E92667E0002402AEB2
:1041C000FDF76CFC3055641CE4B2042CF8D39DF868
:1041D0000B109DF80A00CDE900019DF809309DF80B
:1041E000082041A14948FDF75FFF4848FBF7AAFFB7
:1041F00082B23B4645494648FDF71BFA9DF80A0046
:10420000012858D19DF80B00AA2854D142F6E06449
:104210004FF0804803E0641E24B2002C4BD041468E
:10422000E920FDF7E3FB0028F5D15CB300217A20FB
:10423000FDF7DCFB30BB0024FDF730FC3055641C7F
:10424000E4B2042CF8D39DF80B109DF80A00CDE9D8
:1042500000019DF809309DF8082023A12B48FDF7A7
:1042600023FF2A48FBF76EFF82B23B4627492848C6
:10427000FDF7DFF99DF80800400601D50C2000E0AD
:104280000420287017E001202870412646F2A81467
:1042900002E0641E24B264B100213046FDF7A6FBA3
:1042A0000028F6D12CB14FF400715020FDF79EFB91
:1042B00008B14046E5E72A7816A11448FDF7F4FE58
:1042C0001248FBF73FFF82B23B4610491048FDF70A
:1042D000B0F900205AE70000001001400000002063
:1042E00068330020000801404F43523A20307825BF
:1042F000303258203078253032582030782530320E
:1043000058203078253032580D0A0000580000201F
:10431000C0330020547970652053443A203078250A
:104320003032580D0A00000081760A0AC2760A0C63
:104330000275090E41757047014600200B224308A3
:1043400003EBC01011F8013B521E1844C0B2F6D165
:10435000704770B5044600F050F806004BD104F5E4
:104360008055287803283FD1687901283CD16A8993
:1043700000212046FFF7F3FD552084F8FE01AA2016
:1043800084F8FF015220207060706120A0704121EC
:10439000E170722284F8E42184F8E52184F8E611C2
:1043A00084F8E701286984F8E801010A84F8E91132
:1043B000010C84F8EA11000E84F8EB01E86884F837
:1043C000EC01010A84F8ED11010C84F8EE11000EE5
:1043D00084F8EF01EA690123521CEA6268782146F9
:1043E000FEF7EAFD00206871002268781146FEF7AA
:1043F000BBFD00B10126304670BD2DE9F04100F54E
:104400008054804620790027E8B1E56A607801236E
:104410002A464146FEF7D0FD08B1012713E00020EF
:104420002071206AA169281A88420CD2E67808E037
:10443000A0690123054460782A464146FEF7BCFD89
:10444000761E022EF4D23846BDE8F08110B580B158
:1044500000F58050016861B101F580510A7842B1E0
:10446000CA888088824204D14878FEF799FDC00747
:1044700000D0092010BD0000000000000000010273
:104480000304060708090000000001020304C70036
:10449000FC00E900E200E400E000E500E700EA00DB
:1044A000EB00E800EF00EE00EC00C400C500C9001E
:1044B000E600C600F400F600F200FB00F900FF0081
:1044C000D600DC00F800A300D800D7009201E1007C
:1044D000ED00F300FA00F100D100AA00BA00BF001D
:1044E000AE00AC00BD00BC00A100AB00BB0091253C
:1044F0009225932502252425C100C200C000A900F1
:104500006325512557255D25A200A50010251425FA
:1045100034252C251C2500253C25E300C3005A2505
:10452000542569256625602550256C25A400F000DA
:10453000D000CA00CB00C8003101CD00CE00CF00B2
:1045400018250C2588258425A600CC008025D300BD
:10455000DF00D400D200F500D500B500FE00DE007B
:10456000DA00DB00D900FD00DD00AF00B400AD00D3
:10457000B1001720BE00B600A700F700B800B000D9
:10458000A800B700B900B300B200A025A0006100E8
:1045900062006300640065006600670068006900EF
:1045A0006A006B006C006D006E006F00700071009F
:1045B000720073007400750076007700780079004F
:1045C0007A00A100A200A300A500AC00AF00E000AB
:1045D000E100E200E300E400E500E600E700E800B7
:1045E000E900EA00EB00EC00ED00EE00EF00F00067
:1045F000F100F200F300F400F500F600F800F90015
:10460000FA00FB00FC00FD00FE00FF0001010301B9
:104610000501070109010B010D010F011101130132
:104620001501170119011B011D011F0121012301A2
:104630002501270129012B012D012F013101330112
:10464000350137013A013C013E014001420144017C
:10465000460148014B014D014F01510153015501E4
:10466000570159015B015D015F0161016301650152
:10467000670169016B016D016F01710173017501C2
:1046800077017A017C017E019201B103B203B30389
:10469000B403B503B603B703B803B903BA03BB0346
:1046A000BC03BD03BE03BF03C003C103C303C403F4
:1046B000C503C603C703C803C903CA0330043104D2
:1046C000320433043404350436043704380439041E
:1046D0003A043B043C043D043E043F0440044104CE
:1046E000420443044404450446044704480449047E
:1046F0004A044B044C044D044E044F04510452042C
:1047000053045404550456045704580459045A04D5
:104710005B045C045E045F047021712172217321CB
:104720007421752176217721782179217A217B21C5
:104730007C217D217E217F2141FF42FF43FF44FFF9
:1047400045FF46FF47FF48FF49FF4AFF4BFF4CFF2D
:104750004DFF4EFF4FFF50FF51FF52FF53FF54FFDD
:1047600055FF56FF57FF58FF59FF5AFF0000410001
:10477000420043004400450046004700480049000D
:104780004A004B004C004D004E004F0050005100BD
:10479000520053005400550056005700580059006D
:1047A0005A002100E0FFE1FFE5FFE2FFE3FFC00068
:1047B000C100C200C300C400C500C600C700C800D5
:1047C000C900CA00CB00CC00CD00CE00CF00D00085
:1047D000D100D200D300D400D500D600D800D90033
:1047E000DA00DB00DC00DD00DE0078010001020100
:1047F0000401060108010A010C010E011001120159
:104800001401160118011A011C011E0120012201C8
:104810002401260128012A012C012E013001320138
:104820003401360139013B013D013F0141014301A2
:10483000450147014A014C014E015001520154010A
:10484000560158015A015C015E0160016201640178
:10485000660168016A016C016E01700172017401E8
:10486000760179017B017D0191019103920393030C
:104870009403950396039703980399039A039B0364
:104880009C039D039E039F03A003A103A303A40312
:10489000A503A603A703A803A903AA0310041104F0
:1048A000120413041404150416041704180419043C
:1048B0001A041B041C041D041E041F0420042104EC
:1048C000220423042404250426042704280429049C
:1048D0002A042B042C042D042E042F0401040204AA
:1048E00003040404050406040704080409040A0474
:1048F0000B040C040E040F0460216121622163216A
:104900006421652166216721682169216A216B2163
:104910006C216D216E216F2121FF22FF23FF24FFD7
:1049200025FF26FF27FF28FF29FF2AFF2BFF2CFF4B
:104930002DFF2EFF2FFF30FF31FF32FF33FF34FFFB
:1049400035FF36FF37FF38FF39FF3AFF0000809A06
:1049500090B68EB78F80D2D3D4D8D7DE8E8F909278
:1049600092E299E3EAEB59999A9D9C9D9E9FB5D658
:10497000E0E9A5A5A6A7A8A9AAABAC21AEAFB0B1A6
:10498000B2B3B4B5B6B7B8B9BABBBCBDBEBFC0C18F
:10499000C2C3C4C5C7C7C8C9CACBCCCDCECFD0D17E
:1049A000D2D3D4D5D6D7D8D9DADBDCDDDEDFE0E16F
:1049B000E2E3E5E5E6E7E7E9EAEBEDEDEEEFF0F15E
:1049C000F2F3F4F5F6F7F8F9FAFBFCFDFEFF01034C
:1049D0000507090E10121416181C1E000004000210
:1049E00000018000400020001000080004000200C8
:1049F000000000800040002000100008004000205F
:104A00000010000800040002284A000800000020EE
:104A100058000000D0200008804A000858000020FC
:104A2000E03A0000E0200008000000000000000064
:104A30000000000000000000000000000000000076
:104A4000000000000000000001000000751F0008C9
:104A500045200008FD1F000855200008BD1F000864
:104A60000000000000000000010000001000000035
:104A70000000000000A24A04000000000000000046
:04000005080000ED02
:00000001FF
