:020000040800F2
:1000000010070020D5010008DD010008DF0100080D
:10001000E1010008E3010008E5010008000000001C
:10002000000000000000000000000000E7010008E0
:10003000E901000800000000EB010008ED010008E4
:10004000EF010008EF010008EF010008EF010008D0
:10005000EF010008EF010008EF010008EF010008C0
:10006000EF010008EF010008EF010008EF010008B0
:10007000EF010008EF010008EF010008EF010008A0
:10008000EF010008EF010008EF010008EF01000890
:10009000EF010008EF010008EF010008EF01000880
:1000A000EF010008EF010008EF010008EF01000870
:1000B000EF010008EF010008EF010008EF01000860
:1000C000EF010008EF010008EF010008EF01000850
:1000D000EF010008EF010008EF010008EF01000840
:1000E000EF010008EF010008EF010008EF01000830
:1000F000EF010008EF010008EF010008EF01000820
:10010000EF010008EF010008EF010008EF0100080F
:10011000EF010008EF010008EF010008EF010008FF
:10012000EF010008EF010008EF010008EF010008EF
:1001300000F002F800F03FF80AA090E8000C8244BA
:100140008344AAF10107DA4501D100F034F8AFF297
:10015000090EBAE80F0013F0010F18BFFB1A43F0A5
:10016000010318475818000078180000103A24BFFF
:1001700078C878C1FAD8520724BF30C830C144BF0C
:1001800004680C607047000000230024002500264E
:10019000103A28BF78C1FBD8520728BF30C148BFEA
:1001A0000B607047642901F00783002070471FB57A
:1001B0001FBD10B510BD01F0C9FB1146FFF7F7FFD9
:1001C00001F071F801F0E7FB03B4FFF7F2FF03BCA5
:1001D00001F0ECFB0948804709480047FEE7FEE7CD
:1001E000FEE7FEE7FEE7FEE7FEE7FEE7FEE7FEE7E7
:1001F00004480549054A064B70470000F102000813
:100200003101000810010020100700201003002019
:10021000100300200CB50020019000906B4800688E
:1002200040F480306949086000BF6848006800F405
:10023000003000900198401C0190009818B9019876
:10024000B0F5A06FF1D16148006810F4003F02D012
:100250000120009001E0002000900098012842D188
:100260005B48006840F01000594908600846006883
:1002700020F0030008600846006840F002000860B3
:1002800052484068514948600846406848600846FE
:10029000406840F4806048600846406820F47C1064
:1002A00048600846406840F4E81048600846006826
:1002B00040F08070086000BF4448006810F0007F84
:1002C000FAD04248406820F00300404948600846A0
:1002D000406840F00200486000BF3C48406800F0C1
:1002E0000C000828F9D10CBD10B5FFF793FF10BD25
:1002F00010B53648006840F00100344908600846EF
:10030000406834490840314948600846006832492D
:1003100008402E4908600846006820F480200860E4
:100320000846406820F4FE0048604FF41F008860D3
:10033000FFF7DAFF4FF000602849086010BD10B5E4
:10034000002100200022214B5B6803F00C0121B149
:10035000042906D0082928D107E0214B214C23602D
:1003600027E01F4B1F4C236023E0184B5B6803F40E
:100370007010164B5B6803F48032022303EB90404D
:1003800022B9194B4343174C23600DE00F4B5B68B8
:1003900013F4003F04D0144B4343124C236003E09A
:1003A0000F4B43430F4C236003E00D4B0D4C236078
:1003B00000BF00BF054B5B68C3F303130B4CE15C4C
:1003C000084B1B68CB40074C236010BD0010024057
:1003D000002002400000FFF8FFFFF6FE08ED00E0FD
:1003E00000127A000000002000093D0004000020F7
:1003F00031490143314A1160704770B50021002333
:100400000F22C4780CB32D4C246804F4E064C4F5C6
:10041000E064210AC1F10403CA40447804FA03F1FC
:100420008478144021430901254C0678A1550478AD
:1004300004F01F050124AC4005786D114FF0E02653
:1004400006EB8505C5F8004109E0047804F01F05B6
:100450000124AC401B4D0678761145F8264070BD4E
:10046000194A0A400243154B1B1F1A60704739B1E5
:10047000124A121D12680243104B1B1D1A6006E03F
:100480000E4A121D126882430C4B1B1D1A607047E6
:10049000042808D14FF0E021096941F004014FF030
:1004A000E022116107E04FF0E021096921F0040129
:1004B0004FF0E022116170470000FA050CED00E0FA
:1004C00000E400E080E100E080FFFF1F10B504467B
:1004D000CA48844208D10121042000F027FB0021F2
:1004E000042000F023FB46E0C548844208D10121E6
:1004F000082000F01BFB0021082000F017FB3AE069
:10050000C048844208D10121102000F00FFB0021D7
:10051000102000F00BFB2EE0BB48844208D10121E3
:10052000202000F003FB0021202000F0FFFA22E051
:10053000B648844208D10121402000F0F7FA00219A
:10054000402000F0F3FA16E0B148844208D10121BE
:10055000802000F0EBFA0021802000F0E7FA0AE0AA
:10056000AC48844207D10121801500F0DFFA002158
:10057000A01500F0DBFA10BD10B50121084600F00F
:10058000D5FA0021012000F0D1FA10BD2DE9F0418B
:10059000024600250026002000230024002791F8B1
:1005A00003C00CF00F0591F803C01CF0100F03D02E
:1005B00091F802C04CEA050591F800C0BCF1000FAB
:1005C00031D0146800202BE04FF0010C0CFA00F33E
:1005D000B1F800C00CEA03069E4220D183004FF020
:1005E0000F0C0CFA03F7BC4305FA03FC4CEA0404B5
:1005F00091F803C0BCF1280F06D14FF0010C0CFAA2
:1006000000FCC2F814C00AE091F803C0BCF1480F26
:1006100005D14FF0010C0CFA00FCC2F810C0401CD0
:100620000828D1D31460B1F800C0BCF1FF0F34DD4D
:10063000546800202EE000F1080C4FF0010808FA81
:100640000CF3B1F800C00CEA03069E4221D18300EE
:100650004FF00F0C0CFA03F7BC4305FA03FC4CEA0D
:10066000040491F803C0BCF1280F05D100F1080C77
:1006700008FA0CF8C2F8148091F803C0BCF1480FD6
:1006800007D100F1080C4FF0010808FA0CF8C2F885
:100690001080401C0828CED35460BDE8F0814FF68E
:1006A000FF710180022181700421C17070470246F0
:1006B000002093680B4201D0012000E00020704729
:1006C0000146886880B2704702460020D3680B421A
:1006D00001D0012000E0002070470146C86880B2C8
:1006E000704701617047416170470AB1016100E0E4
:1006F00041617047C16070474FF480320A438261A4
:100700008161826182698269704702460020424BA2
:1007100018684FF68073184040EA021008433E4BB9
:10072000186070473D49C8617047F0B50A4600231C
:1007300000240021002500F00046B6F1004F02D150
:10074000354EF16901E0344E7168C0F3034583B260
:1007500000F44016B6F5401F08D121F070612E4E0E
:10076000766826F070662C4F7E6012E000F48016EA
:10077000B6F5801F06D1032606FA05F4A14341F021
:10078000706106E0460D360103FA06F6B14341F00A
:10079000706122B1460D360103FA06F6314300F0CE
:1007A0000046B6F1004F02D11B4EF16101E01A4E36
:1007B0007160F0BD30B500228B071C0F0F2303FAC8
:1007C00004F2154B08338C1053F824309343124C29
:1007D00008348D1044F8253023468C1053F824300B
:1007E0008C07240F00FA04F423430B4C08348D10BB
:1007F00044F8253030BD0A490860704700080140C0
:10080000000C01400010014000140140001801409C
:10081000001C014000200140000001400000204277
:10082000DC002042DD48006840F00100DB49086040
:1008300008464068DA490840D849486008460068D8
:10084000D8490840D54908600846006820F480204F
:1008500008600846406820F4FE0048604FF41F001E
:1008600088607047CD49096821F48031CB4A116016
:100870001146096821F480211160B0F5803F03D052
:10088000B0F5802F0ED106E0C449096841F48031EB
:10089000C24A116007E0C149096841F4A021BF4A7A
:1008A000116000E000BF00BF704710B50146002294
:1008B000002300204A11012A02D1B84C236806E027
:1008C000022A02D1B54C236A01E0B44C636A01F0FC
:1008D0001F02012494401C4201D0012000E00020AE
:1008E00010BD38B5002000900024002500BF312045
:1008F000FFF7DBFF05460098401C00900098B0F51C
:10090000A06F01D0002DF2D03120FFF7CEFF08B14B
:10091000012400E00024204638BD014600209F4A03
:10092000106820F0F80040EAC100106070479E494E
:100930000860704702460020984B586820F47C10ED
:1009400042EA01031843954B586070479649086680
:10095000704701460020914A506820F00300084388
:10096000506070478D48406800F00C0070470146A9
:1009700000208A4A506820F0F00008435060704719
:1009800001460020854A506820F4E060084350602A
:10099000704701460020814A506820F4605040EAC8
:1009A000C1005060704729B17C4A527A02437B4BA8
:1009B0005A7204E0794A527A8243784B5A727047ED
:1009C0007A490860704701460020744A506820F454
:1009D00040400843506070470021754A11706F4ACB
:1009E00082F82010012802D0042808D103E0012158
:1009F0006F4A117004E005216D4A117000E000BFDC
:100A000000BF70476B49086070476449096A014339
:100A1000624A11627047674944390860704730B5CF
:100A200000210022002400235C4D6D6805F00C01BC
:100A300021B1042905D0082923D105E05E4D0560C8
:100A400022E05D4D05601FE0544D6D6805F47012A5
:100A5000524D6D6805F48034022505EB92421CB9B5
:100A6000564D554305600BE04C4D6D6815F4003F45
:100A700003D0524D5543056002E04F4D554305608C
:100A800002E04D4D056000BF00BF444D6D6805F0AC
:100A9000F00109094A4D6B5C0568DD4045603F4D3A
:100AA0006D6805F4E061090A454D6B5C4568DD4001
:100AB00085603A4D6D6805F46051C90A404D6B5C24
:100AC0004568DD40C560354D6D6805F44041890BD2
:100AD0003C4D6B5CC568B5FBF3F5056130BD29B1D4
:100AE0002E4A526902432D4B5A6104E02B4A526947
:100AF00082432A4B5A61704729B1284A92690243BE
:100B0000264B9A6104E0254A92698243234B9A61FD
:100B1000704729B1214AD2690243204BDA6104E0CF
:100B20001E4AD26982431D4BDA61704729B11B4AC4
:100B3000D2680243194BDA6004E0184AD268824353
:100B4000164BDA60704729B1144A12690243134BFD
:100B50001A6104E0114A12698243104B1A6170470E
:100B600014494039086070470F49C86470470B4901
:100B7000C87170470948406A40F080700749486270
:100B8000704701460020054A92680A4201D00120C0
:100B900000E0002070470149887270470010024051
:100BA0000000FFF8FFFFF6FE00004242D80042427C
:100BB000201002408004424200127A0000093D00E9
:100BC000140000202400002010B50446FB48844295
:100BD00009D101218803FFF7A9FF00214FF48040CC
:100BE000FFF7A4FF32E0F648844209D1012148040E
:100BF000FFF7A9FF00214FF40030FFF7A4FF25E025
:100C0000F048844209D101218804FFF79CFF0021AC
:100C10004FF48020FFF797FF18E0EB48844209D19A
:100C20000121C804FFF78FFF00214FF40020FFF7D8
:100C30008AFF0BE0E548844208D101210805FFF74F
:100C400082FF00214FF48010FFF77DFF10BD2DE9DA
:100C5000F04786B005460E460024A24600BFA146D6
:100C60000027B08900B100BF2F462C8A4CF6FF70D8
:100C70000440F08804432C82AC894EF6F310044003
:100C8000B08831890843718908430443AC81AC8A38
:100C90004FF6FF400440B0890443AC8201A8FFF73F
:100CA000BEFEC648874202D1DDF810A001E0DDF8A3
:100CB0000CA0A88910F4004F08D00AEBCA0000EB82
:100CC0000A1031684900B0FBF1F807E00AEBCA00EE
:100CD00000EB0A1031688900B0FBF1F86420B8FB22
:100CE000F0F004012009642101FB1089A88910F4A7
:100CF000004F08D0322000EBC900B0FBF1F000F04B
:100D00000700044308E0322000EB09106421B0FB27
:100D1000F1F000F00F0004432C8106B0BDE8F0872D
:100D20004FF41651016000218180C18001810C21A6
:100D3000418100218181704710B502460020108A50
:100D40004FF2FF0318400B884C8823438C882343C1
:100D5000CC8823431843108210BD002101804180BC
:100D60008180C180704721B1828942F40052828122
:100D700004E082894DF6FF731A4082817047F0B516
:100D800003460024002600250020A1F510676A3FD5
:100D900000D100BF1846C1F3421401F01F0601271D
:100DA00007FA06F5012C01D10C3004E0022C01D128
:100DB000103000E014301AB107682F43076002E0DA
:100DC0000768AF430760F0BD1AB1838A0B43838283
:100DD00002E0838A8B4383827047028A4FF6F07366
:100DE0001A400282028A0A430282704782894FF2C5
:100DF000FF731A40828182890A438281704721B140
:100E0000828942F00202828104E082894FF6FD73FA
:100E10001A4082817047028A4FF6DF731A400282BD
:100E2000028A0A430282704721B1028A42F4804258
:100E3000028204E0028A4BF6FF731A400282704776
:100E4000C1F308028280704701468888C0F3080019
:100E50007047818941F0010181817047028BD2B2D4
:100E60000283028B42EA012202837047028B02F462
:100E70007F420283028B0A430283704721B1828A38
:100E800042F02002828204E0828A4FF6DF731A4029
:100E90008282704721B1828A42F01002828204E08D
:100EA000828A4FF6EF731A408282704721B1828A9C
:100EB00042F00802828204E0828A4FF6F7731A40F9
:100EC0008282704721B1828942F40042828103E02C
:100ED0008289C2F30E028281704721B1828A42F474
:100EE0000062828204E0828A4FF2FF731A4082829B
:100EF0007047828A4FF6FB731A408282828A0A43C5
:100F00008282704721B1828A42F00202828204E02A
:100F1000828A4FF6FD731A40828270470246002093
:100F2000B1F5007F00D100BF13880B4201D0012032
:100F300000E00020704701F40072B2F5007F00D19C
:100F400000BFCA430280704770B5024600240023E8
:100F500000250020A1F510666A3E00D100BFC1F354
:100F6000421501F01F03012606FA03F3012D02D1F9
:100F70009689334006E0022D02D1168A334001E003
:100F8000968A33400C12012606FA04F4168834407F
:100F900013B10CB1012000E0002070BD10B500229B
:100FA0000023A1F510646A3C00D100BF0A1201249D
:100FB0009440A3B2DC43048010BD0000003801401F
:100FC0000044004000480040004C004000500040F9
:100FD00008B54FF4E060FFF70BFA25208DF800000C
:100FE0000F208DF8020001208DF803006846FFF7FE
:100FF00004FA08BD002100E0491C8142FCD370477F
:1010000000BFDF49098811F0800FFAD0C0F3080152
:10101000DB4A121D1180704700BFD948008810F0CC
:10102000200FFAD0D648001D0088C0F30800704792
:1010300000BFD449098811F0800FFAD0C0F308012D
:10104000D04A121D1180704700BFCE48008810F0B2
:10105000200FFAD0CB48001D0088C0F3080070476D
:1010600000BFC949098811F0800FFAD0C0F3080108
:10107000C54A121D1180704700BFC348008810F098
:10108000200FFAD0C048001D0088C0F30800704748
:101090002DE9F04107460C4615461E4601210D205C
:1010A000FFF72AFD01218803FFF726FDB7490C80D1
:1010B0001820C870032088703846FFF767FAB349D4
:1010C0000D800420C8703846FFF760FAB04806600B
:1010D0000020AF498880C880088188810C20488121
:1010E000A748FFF7B4FD4021A548FFF724FF2021C2
:1010F000A348FFF720FF002240F22771A048FFF726
:101100003EFE012240F225519D48FFF738FE0121A5
:101110009B48FFF728FEBDE8F0812DE9F041074626
:101120000C4615461E4601210D20FFF7E5FC012166
:101130004804FFF7EEFC95490C801820C870032086
:1011400088703846FFF722FA90490D800420C87055
:101150003846FFF71BFA8E48066000208C498880CD
:10116000C880088188810C2048818648FFF76FFD80
:1011700040218448FFF7DFFE20218248FFF7DBFE95
:10118000002240F227717F48FFF7F9FD012240F26B
:1011900025517C48FFF7F3FD01217A48FFF7E3FD75
:1011A000BDE8F0812DE9F04107460C4615461E4684
:1011B00001210D20FFF7A0FC01218804FFF7A9FC05
:1011C00072490C801820C870032088703846FFF7D9
:1011D000DDF96E490D800420C8703846FFF7D6F956
:1011E0006B48066000206A498880C8800881888131
:1011F0000C2048816448FFF72AFD40216248FFF730
:101200009AFE20216048FFF796FE002240F22771E7
:101210005D48FFF7B4FD012240F225515A48FFF71F
:10122000AEFD01215848FFF79EFDBDE8F08170B585
:1012300004460D4600BF40212046FFF76FFE002800
:10124000F9D029462046FFF7FBFD70BD10B50446D6
:1012500004E014F8011B4A48FFF7E9FF2078002852
:10126000F7D110BD10B5044604E014F8011B454841
:10127000FFF7DDFF20780028F7D110BD10B5044638
:1012800004E014F8011B4048FFF7D1FF2078002844
:10129000F7D110BD642200FB02F100BF0A00A1F1EA
:1012A0000101FBD1704700F09BF800F09FF800F0BF
:1012B000A3F900F0D9F94FF4E1334FF480625110F3
:1012C0003448FFF7E5FE00224FF400513248FFF7A3
:1012D0000CFA002208212F48FFF707FA0022042108
:1012E0002D48FFF702FA4AE02C4800F0E5F9012802
:1012F00028D12A48007841280BD108212548FFF73A
:10130000E3F9C0F10100C4B2224608212148FFF7E9
:10131000ECF90020224908600BE02048204A1268BE
:10132000815C20A000F008FA1D480068401C1C49A0
:1013300008601B4800682028EFDB1BA000F0FCF9C8
:1013400000F092F94FF480711848FFF7B0F918498E
:1013500008600846006870B91648006801280AD17C
:1013600000F096F9144800F0C3F9FF21272000F09F
:10137000EAF800F079F90E4800680E490860B3E712
:101380000038014000440040004800403800002080
:101390006C00002000080140001001407C0000208B
:1013A0003C000020256400000A000000000C014001
:1013B000280000202C0000204000002070B50446CA
:1013C0000D46E1B20548FFF73BFD00BF4021034851
:1013D000FFF7A4FD0028F9D0204670BD0038014079
:1013E00010B501211C20FFF787FB10BD08B542F2A4
:1013F0000800ADF8000003208DF8020010208DF8E1
:1014000003006946C848FFF7C1F84FF48050ADF8B3
:10141000000003208DF8020010208DF803006946BB
:10142000C248FFF7B3F84FF40050ADF800000320B6
:101430008DF8020010208DF803006946BB48FFF7C5
:10144000A5F84FF48040ADF8000003208DF80200AD
:1014500004208DF803006946B448FFF797F84FF46D
:101460008070ADF8000003208DF8020010208DF888
:1014700003006946AC48FFF789F84FF40040ADF827
:10148000000003208DF8020010208DF8030069464B
:10149000A648FFF77BF84FF44070ADF8000003203A
:1014A0008DF8020048208DF8030069469F48FFF739
:1014B0006DF808BD70B5044600252AE004F08000F0
:1014C000802805D1012201029848FFF70EF905E0B6
:1014D00000224FF400419548FFF707F90520FFF778
:1014E000D9FE6006040E012251039048FFF7FDF873
:1014F0000520FFF7CFFE4FF480418C48FFF7D7F867
:10150000044300224FF400518848FFF7EEF8681CAE
:10151000C5B2082DD2DB204670BD70B5044600224E
:101520004FF480718048FFF7E0F82046FFF7C2FFD4
:101530000020FFF7BFFF0546012211027A48FFF79E
:10154000D4F8284670BD70B505460C4600224FF40D
:1015500080717548FFF7C9F82846FFF7ABFF0646CC
:101560002046FFF7A7FF012211026F48FFF7BDF8E1
:10157000304670BD2DE9F04107460D461646002263
:101580004FF480716848FFF7B0F83846FFF792FFD4
:101590008046002405E00020FFF78CFF2855601CE2
:1015A000C4B2B442F7DB012211025F48FFF79DF895
:1015B0004046BDE8F0812DE9F04107460C4615464E
:1015C00000224FF480715848FFF78FF83846FFF734
:1015D00071FF8046002605E014F8010BFFF76AFF53
:1015E000701CC6B2AE42F7DB012211024E48FFF773
:1015F0007CF84046BDE8F08110B56420FFF74AFE54
:1016000000224FF480514948FFF76FF80122110280
:101610004548FFF76AF800224FF400514348FFF7AE
:1016200064F8052242493020FFF7C5FF05224149F1
:101630002A20FFF7C0FF01212120FFF784FF0121AD
:101640002220FFF780FF00212520FFF77CFF2021CB
:101650003120FFF778FF07212620FFF774FF0E21C6
:101660002020FFF770FF10BD10B500224FF480510D
:101670002E48FFF73AF80F212020FFF764FF0122E0
:1016800011032A48FFF731F88220FFF703FE10BD4F
:1016900010B500224FF480512448FFF726F80E21A0
:1016A0002020FFF750FF012211032048FFF71DF80B
:1016B0008220FFF7EFFD10BD70B50446002607201D
:1016C000FFF72BFF054615F0400F0BD000224FF41B
:1016D00080511648FFF709F8202221466120FFF7C4
:1016E00049FF012629462720FFF72DFF304670BD10
:1016F00010B5044600224FF480510C48FEF7F5FF68
:1017000005220B492A20FFF756FF20222146A02060
:10171000FFF751FF0E212020FFF715FF01221103D3
:101720000248FEF7E2FF10BD00080140000C014036
:1017300060000020650000200FB4044910B503AA22
:10174000029800F0D5F810BC5DF814FB30000020C2
:101750002DE9F0410E460446002020622046E16853
:10176000884730B3252805D0D4E901219047206A65
:10177000401CF2E7E168204600278847050018D0A2
:10178000A5F14100192802D820354FF400673246F0
:10179000294620462760FEF705FD40B1012804D008
:1017A000F61D26F007060836D8E7361DD6E7284688
:1017B000DAE7206ABDE8F0812DE9F0410646002411
:1017C00010687529314616A511D0AFF300800028A6
:1017D00003DAC0F1000013A507E031688A0701D5DC
:1017E00011A502E0490704D510A5012401E0AFF3DB
:1017F000008000210A2306F1240707E0B0FBF3F282
:1018000003FB1200303078541046491C0028F5D1F3
:1018100023462A463046BDE8F04100F00CB80000EF
:10182000000000002D0000002B0000002000000040
:101830007047704770472DE9F0470D46994692462C
:10184000044600F124080168880604D5E06921F007
:101850001001216000E00120A84202DDA0EB050795
:1018600000E00027A16907EB050202EB0900A1EBEC
:101870000000A0612078C00602D42046AFF30080AB
:10188000002608E0D4E901211AF806009047206AF2
:10189000401C761C20624E45F4DB2078C0060AD539
:1018A0002046AFF3008006E0D4E9012130209047C4
:1018B000206A401C2062381EA7F10107F4DC07E013
:1018C000D4E9012118F805009047206A401C2062E5
:1018D000281EA5F10105F3DC2046AFF30080207837
:1018E000000602D50220BDE8F0870120FBE70000DA
:1018F000074B70B50D467B4400F011F804462846AE
:1019000000F020F810B14FF0FF3070BD204670BDE0
:10191000C3FAFFFF01694A1C02610878704700B5ED
:101920008FB0CDE901310021059105497944CDE918
:10193000031011466846FFF70BFF0FB000BD000013
:10194000E5FFFFFF007B00F080007047754600F068
:1019500029F8AE4605006946534620F00700854643
:1019600018B020B5FEF744FCBDE820404FF000065B
:101970004FF000074FF000084FF0000B21F0070177
:10198000AC46ACE8C009ACE8C009ACE8C009ACE8BA
:10199000C0098D4670470446AFF300802046FEF72D
:1019A00013FC000000487047AC00002001491820DB
:1019B000ABBEFEE72600020070470000DC190008FD
:1019C000000000206C0000006C010008481A0008AC
:1019D0006C000020A40600008801000800A24A0450
:1019E00000000000000000000102030406070809CF
:1019F00000000000010203040102030406070809B5
:101A000002040608010000000100000000000000C0
:101A1000000000000000000000000000410203047C
:101A200005060708090A0B0C0D0E0F1011121314EE
:101A300015161718191A1B1D1E1F200068310810D3
:081A40000168310810010000EB
:04000005080001D519
:00000001FF
