:020000040800F2
:10000000980600200101000833130008B712000809
:1000100031130008DF010008471700080000000046
:10002000000000000000000000000000571300085E
:10003000A506000800000000551300085913000829
:100040001B0100081B0100081B0100081B01000820
:100050001B0100081B0100081B0100081B01000810
:100060001B0100081B0100081B0100081B01000800
:100070001B0100081B0100081B0100081B010008F0
:100080001B0100081B0100081B0100081B010008E0
:100090001B0100081B0100081B0100081B010008D0
:1000A0001B0100081B0100081B0100081B010008C0
:1000B0001B0100081B0100081B0100081B010008B0
:1000C0001B0100081B0100081B0100081B010008A0
:1000D0001B010008151700081B0100081B01000880
:1000E0001B0100081B0100081B010008DFF80CD0F1
:1000F00000F038F800480047C518000898060020AE
:100100000648804706480047FEE7FEE7FEE7FEE7B1
:10011000FEE7FEE7FEE7FEE7FEE7FEE7D113000895
:10012000ED000008D2B201E000F8012B491EFBD21D
:1001300070470022F6E710B513460A4604461946F2
:10014000FFF7F0FF204610BD10B5002200E0521C62
:10015000835C8C5CA34201D1002BF8D1D8B2E1B210
:10016000401A10BD064C074D06E0E06840F0010360
:1001700094E8070098471034AC42F6D3FFF7BAFF73
:10018000D01C0008F01C000870B58C1810F8015B3A
:1001900015F0070301D110F8013B2A1106D110F820
:1001A000012B03E010F8016B01F8016B5B1EF9D124
:1001B0002B0705D40023521E0DD401F8013BFAE7AA
:1001C00010F8013BCB1A921C03E013F8015B01F815
:1001D000015B521EF9D5A142D8D3002070BDFEE7C5
:1001E00070B506460025072000F0A8F90446400631
:1001F0000AD500221021074800F097FB2022314643
:10020000612000F0B3F901252146272000F07CF998
:10021000284670BD0008014010B5642000F090FA37
:100220001A4C00221021204600F07FFB01220821F9
:10023000204600F07AFB00222021204600F075FBCA
:1002400005221349302000F0B5F911490522491D56
:100250002D2000F0AFF90321212000F055F90321F2
:10026000222000F051F90421252000F04DF9202131
:10027000342000F049F90721262000F045F90E212D
:10028000BDE81040202000F03FB900000008014008
:100290000000002010B5642000F052FA174C002234
:1002A0001021204600F041FB01220821204600F0E9
:1002B0003CFB00222021204600F037FB052210499C
:1002C000302000F077F90221212000F01DF90221F1
:1002D000222000F019F91221252000F015F9202123
:1002E000332000F011F90721262000F00DF90E212E
:1002F000BDE81040202000F007B9000000080140D0
:100300000A00002010B5642000F01AFA1A4C0022EE
:100310001021204600F009FB01220821204600F0B0
:1003200004FB00222021204600F0FFFA0522134999
:10033000302000F03FF911490522491D2A2000F024
:1003400039F90121212000F0DFF80121222000F0FD
:10035000DBF80421252000F0D7F82021312000F01F
:10036000D3F80721262000F0CFF80E21BDE8104079
:10037000202000F0C9B80000000801400000002063
:100380007FB5402000900020084D0324019069466D
:100390000394284600F0E6F9B8200090012001906F
:1003A00069460394284600F0DDF97FBD000801404E
:1003B00070B5104D044600221021284600F0B5FA11
:1003C00005220D492A2000F0F5F820222146A02020
:1003D00000F0F0F80E21202000F096F80122102104
:1003E000284600F0A2FABDE87040FF21272000F067
:1003F0008BB80000000801400000002070B5104DCF
:10040000044600221021284600F08FFA05220D49EB
:100410002C2000F0CFF820222146A02000F0CAF8BE
:100420000E21202000F070F801221021284600F053
:100430007CFABDE87040FF21272000F065B800007D
:10044000000801400A00002010B50A4C00221021CB
:10045000204600F06AFA0F21202000F055F8012212
:100460001021204600F061FABDE81040822000F023
:1004700067B900000008014010B50A4C00221021A5
:10048000204600F052FA0E21202000F03DF8012213
:100490001021204600F049FABDE81040822000F00B
:1004A0004FB90000000801402DE9F041154E054606
:1004B0000024280601D5012200E0002280213046D8
:1004C00000F033FA052000F03BF96806070E012220
:1004D0002021304600F029FA052000F031F94021B2
:1004E000304600F01DFA40EA070500222021304680
:1004F00000F01BFA641CE4B2082CDAD32846BDE8ED
:10050000F08100000008014070B50B4D0E46044616
:1005100000220821284600F008FA2046FFF7C4FF11
:1005200004463046FFF7C0FF01220821284600F0AC
:10053000FCF9204670BD00000008014070B50A4D6E
:10054000044600220821284600F0EFF92046FFF774
:10055000ABFF0020FFF7A8FF044601220821284630
:1005600000F0E3F9204670BD000801402DE9F0419C
:10057000DFF83C8015460F4604460022082140461D
:1005800000F0D3F92046FFF78FFF0646002405E070
:100590000020FFF789FF3855641CE4B2AC42F7D362
:1005A00001220821404600F0C0F93046BDE8F08144
:1005B000000801402DE9F041DFF83C8016460D4669
:1005C000044600220821404600F0AFF92046FFF71C
:1005D0006BFF0746002405E015F8010BFFF764FFE9
:1005E000641CE4B2B442F7D301220821404600F073
:1005F0009CF93846BDE8F0810008014010B501F0D3
:100600004DFB0B4C00220221204600F08EF94FF4E6
:10061000FA7000F031F801220221204600F085F93D
:100620001E2000F029F8BDE8104001F029BB0000B1
:10063000000801400E48016821F0807101600168E6
:1006400041F0807101600B48016821F001010160F7
:10065000016841F0010101600021416000BF00BF5D
:1006600000BF406808B100207047012070470000BB
:10067000FCED00E0001000E031B5084D6C6800F0C2
:10068000C9FA0749B0FBF1F0009948430090686847
:100690000099001B8842FAD338BD0000001000E02A
:1006A00040420F007047000010B590F82110002460
:1006B000022903D00421816301243DE001680A6816
:1006C00022F00E020A6001680A6822F001020A6044
:1006D0001A4A0168914201D1012121E0174A1432DE
:1006E000914201D110211BE0144A2832914201D1DC
:1006F000891515E0114A3C32914201D189140FE06D
:100700000E4A5032914202D14FF4803108E00B4A38
:100710006432914202D14FF4801101E04FF08071B8
:10072000064A083A5160012180F82110002180F822
:100730002010416B01B18847204610BD08000240DF
:1007400070B5044600F0F6F80546601C02D0044877
:100750000078044400F0EEF8401BA042FAD370BDCC
:10076000780100202DE9F84FDFF890A100220AF16E
:10077000040B144601274FF00F090BF1040E00BFC4
:100780000B6807FA04F52B40AB4274D1DFF870C157
:100790004E68A6EB0C0866452BD00DDC032E34D03A
:1007A00005DC36B3012E19D0022E2FD11BE0112EFD
:1007B00016D0122E2AD119E0B8F5881F19D006DC00
:1007C000B8F5803F15D0B8F5801F1FD111E0B8F5FE
:1007D000001F0ED0B8F5041F18D10AE0CA6815E052
:1007E000CA68121D12E0CA6808320FE0CA680C32EB
:1007F0000CE08A682AB1012A4FF0080203D0456153
:1008000004E0042202E0056100E00022FF2B01D891
:10081000064601E000F104064FEA840501D9A5F17E
:100820002005D6F800C009FA05F82CEA080C02FAEF
:1008300005F54CEA050CC6F800C04D68ED0057D52B
:10084000304DAE6946F00106AE61AD6924F0030695
:1008500005F0010500952C4D06EB050CDCF8085061
:10086000A6074FEA167809FA08F6B543274EB042B4
:1008700002D1002610E03BE0254EB04201D1012616
:100880000AE0244EB04201D1022605E0224EB042D9
:1008900001D1032600E0042606FA08F62E43CCF820
:1008A00008604D68DAF80060ED03554601D51E4337
:1008B00000E09E432E604D68DBF80060AD035D46AE
:1008C00001D51E4300E09E432E604D68DEF80060B7
:1008D000ED02754601D51E4300E09E432E604D6833
:1008E000AD020E4D2E6801D51E4300E09E432E60E2
:1008F000641C102CFFF444AFBDE8F88F00040140E5
:1009000000001110001002400000014000080140EA
:10091000000C014000100140001401400C04014093
:100920008068084000D0012070470AB1016170471B
:100930000904FBE701488068704700007801002047
:100940000248816802781144816070477801002074
:10095000074810B5016841F010010160032000F064
:100960009DF8002000F006F800F024F8002010BDEB
:100970000020024070B50D4D04464FF47A7128787E
:10098000B1FBF0F00A490968B1FBF0F000F02DFB73
:1009900048B9102C07D200222146501E00F05EF804
:1009A00000206C6070BD012070BD00007801002047
:1009B00084010020214808B5816941F0010181616D
:1009C000816901F001010091C16941F08051C1616B
:1009D000C06900F080500090032000F05FF8002212
:1009E00011466FF00B0000F039F8002211466FF04D
:1009F0000A0000F033F8002211466FF0090000F001
:100A00002DF800221146501F00F028F80022114650
:100A1000101F00F023F800221146901E00F01EF86F
:100A200000221146501E00F019F80548416821F0D7
:100A3000E06141F00071416008BD0000001002401B
:100A40000000014000F01F02012191404009800098
:100A500000F1E020C0F8001170470000F0B40E4B28
:100A60001B680C46C3F30223C3F10705042D00D90C
:100A70000425191D072901D2002300E0DB1E0126F1
:100A800006FA05F1491E214099409E40761E164007
:100A90003143F0BC00F04EBC0CED00E0064900F024
:100AA000070208684FF6FF03184040EA0220034A95
:100AB00010430860704700000CED00E00000FA05EC
:100AC0002DE9F047DFF83C8105460E46D8F80000D6
:100AD00000F00700B0420CD2D8F8001021F0070156
:100AE0003143C8F80010D8F8000000F00700B04209
:100AF00063D12878444C800705D56068A96820F048
:100B0000F000084360602878C00745D06868012875
:100B100016D02168022816D0890700294DDA6168AD
:100B200021F0030101436160FFF704FF6968074694
:100B300041F2883001290FD00229814619D027E0DF
:100B400021688903E9E78901E7E700BFFFF7F2FEC3
:100B5000C11B494501D918E081466068C0F3810096
:100B60000128F3D118E000BFFFF7E4FEC11B49459F
:100B70000BD86068C0F381000228F5D10CE000BFFB
:100B8000FFF7D8FEC11B494502D90320BDE8F08715
:100B9000606810F00C0FF3D1D8F80010404601F057
:100BA0000701B1420BD9016821F00701314301600F
:100BB000006800F00700B04201D00120E6E7287885
:100BC000400705D56068E96820F4E060084360608C
:100BD0002878000706D56068296920F4605040EA4B
:100BE000C100606000F03CF86168084AC1F303117D
:100BF000515CC840064908600020FFF7BBFE00209A
:100C0000C4E700000020024000100240B81C0008A9
:100C10008401002001480068704700008401002022
:100C20000448054900684968044AC1F30221515C3F
:100C3000C84070478401002000100240C81C000812
:100C40000448054900684968044AC1F3C221515C5F
:100C5000C84070478401002000100240C81C0008F2
:100C600012A185B00FC98DE80F0014A0144A0068C6
:100C700004905168134801F00C03042B10D0082B8A
:100C80000ED1C1F38343C9031DF803000AD551688F
:100C900004AAC1F34041515C0A4A5043B0FBF1F051
:100CA00005B0704708494843FAE70000020304050D
:100CB000060708090A0B0C0D0E0F101001020000A8
:100CC0000010024000127A0000093D002DE9F84FA3
:100CD00004460078B94DC00748D06868C0F3810069
:100CE000012807D06868C0F38100022809D168682C
:100CF000C00306D52868800338D5606800286FD007
:100D000034E06068B0F5803F0BD010B1B0F5A02F93
:100D100011D0286820F480302860286820F48020D2
:100D200002E0286840F480302860606888B1FFF7EE
:100D300001FE064609E0286840F480202860F0E7BC
:100D4000FFF7F8FD801B642875D828688003F7D565
:100D50000CE0FFF7EFFD064605E000BFFFF7EAFDF8
:100D6000801B6428F0D828688003F7D42078944E3C
:100D700080074FF001094FF000083BD5686810F07C
:100D80000C0F07D06868C0F38100022809D1686899
:100D9000C00306D42868800714D5206901281FD114
:100DA00010E02069B0B1C6F80090FFF7C3FD074618
:100DB00005E000BFFFF7BEFDC01B0228C4D82868AD
:100DC0008007F7D52868616920F0F80040EAC10083
:100DD00028600FE0C6F80080FFF7ACFD074606E08C
:100DE000E9E000BFFFF7A6FDC01B022823D8286852
:100DF0008007F7D4207800072CD57248A169D9B1B3
:100E0000C0F80090FFF796FD074604E0FFF792FD5B
:100E1000C01B02280FD8686A8007F7D56A484FF4CC
:100E2000FA510068B0FBF1F0009000BF0098411E3D
:100E30000091FAD20EE080E0C0F80080FFF77AFD62
:100E4000074604E0FFF776FDC01B022875D8686AE4
:100E50008007F7D42078400760D5E8690027C000F4
:100E600008D4E86940F08050E861E869012700F0A3
:100E70008050009055480168C90513D40168834625
:100E800041F480710160FFF755FD824606E000BF26
:100E9000FFF750FDA0EB0A0064284ED8DBF80000F5
:100EA000C005F5D5E06801280AD008B1052813D09F
:100EB000286A20F001002862286A20F0040002E07D
:100EC000286A40F001002862E06841F2883B98B14E
:100ED000FFF730FD82460BE0286A40F004002862EC
:100EE000EEE700BFFFF726FDA0EB0A0159455AD8EF
:100EF000286A8007F6D50CE0FFF71CFD824605E066
:100F0000FFF718FDA0EB0A0159454CD8286A800765
:100F1000F6D41FB1E86920F08050E861E06988B339
:100F20006968C1F38101022945D00228C6F86080B2
:100F300004D0FFF7FFFC044638E034E0FFF7FAFC8A
:100F4000074604E0FFF7F6FCC01B02282BD82868F0
:100F50008001F7D4206AB0F5803F05D16868A168A8
:100F600020F4003008436860D4E908010843696848
:100F700021F4741108436860C6F86090FFF7DAFC4A
:100F8000044606E015E000BFFFF7D4FC001B022872
:100F900009D828688001F7D50BE000BFFFF7CAFC2D
:100FA000001B022802D90320BDE8F88F28688001C1
:100FB000F4D40020F8E70120F6E70000001002401A
:100FC0000000424280044242840100200070004040
:100FD0004FF0E0210428086903D020F004000861E4
:100FE000704740F00400FAE7704710B5401EB0F1BA
:100FF000807F01D3012010BD4FF0E02460610F21FC
:10100000601700F097F90020A06107202061002000
:1010100010BD10B5FFF7E8FF10BD704770B502684E
:1010200004461068D168536910F00F0F50D003F0D8
:10103000010501F4907635435DD0C20705D0CA059D
:1010400003D5E26B42F00102E263420705D5DA07FD
:1010500003D0E26B42F00202E263820705D5DA07B1
:1010600003D0E26B42F00402E263020705D5DA071F
:1010700003D0E26B42F00802E263E26B002A33D055
:10108000800604D5880602D5204600F0DBF92068EA
:101090004069E16BC0F38010090700D428B32046F3
:1010A00000F0C2F92068416949061AD5416921F06A
:1010B00040014161606BA0B11B494163606BFFF768
:1010C000F3FA002810D0606B416BBDE87040084710
:1010D000830610D58B060ED52046BDE8704000F083
:1010E000B1B92046FFF799FF70BD2046FFF795FF85
:1010F0000020E06370BD030606D50B0604D520462C
:10110000BDE8704000F0A2BA4006F3D54806F1D51C
:10111000D168204621F04001D160202184F83910A7
:1011200000F0C8F870BD00001914000870B5040084
:1011300004D094F83900002510B106E0012070BDFC
:1011400084F83850204600F023F8242084F8390031
:101150002068C16821F40051C160204600F0BEF94A
:101160002068016921F4904101612068416921F002
:101170002A0141612068C16841F40051C160E56302
:10118000202084F8390084F83A00002070BD000067
:1011900010B50068154986B0884225D11448816988
:1011A00041F4804181618069124C00F480400490D8
:1011B0004FF40070009002200190032003906946D4
:1011C0002046FFF7CFFA00212015CDE9000102915A
:1011D00069462046FFF7C6FA002211462520FFF790
:1011E0003DFC2520FFF72EFC06B010BD0038014065
:1011F000001002400008014070472DE9F843044602
:1012000090F839001F4616460D46202850D1A5B14A
:101210009EB194F8380001284AD0012084F83800A3
:101220004FF00008C4F83C80212084F83900FFF713
:1012300081FBA6848146E68426E00120BDE8F88390
:10124000E08C401EE084A0684B46B0F5805F4FF014
:1012500000024FF080012046009703D000F027FAEB
:10126000E8B90DE000F023FAC8B928882168C0F376
:1012700008004860206908B16D1C05E0AD1C03E062
:10128000216815F8010B4860E08C0028D8D14B4646
:10129000002240212046009700F009FA08B10320FF
:1012A000CCE7202084F8390084F838800020C5E796
:1012B0000220C3E77047FEE770B51B4886B081691E
:1012C00041F020018161816901F02001049181696F
:1012D00041F008018161816901F00801049181698F
:1012E00041F0040181618069104E00F004004FF468
:1012F00080440490002221463046FFF716FB00256B
:101300000220CDE902500094012469460194304640
:10131000FFF728FAE003CDE900056946029430465C
:10132000FFF720FA06B070BD00100240000C01402B
:10133000FEE770470907090E002806DA00F00F00E3
:1013400000F1E02080F8141D704700F1E02080F8E3
:10135000001470477047704710B5FFF7F1FABDE809
:101360001040FFF756BE30B58FB001210804CDE91B
:1013700000100024029402250491CDE907504FF497
:10138000E01009906846FFF7A1FC00B1FEE70F20CE
:10139000CDE90A054FF48060CDE90C4002210AA88E
:1013A0000E94FFF78DFB00B1FEE7FFF733FC4FF41F
:1013B0007A71B0FBF1F0FFF718FE0420FFF708FE8A
:1013C00000221146501EFFF749FB0FB030BD000050
:1013D0000D48016841F00101016041680B4A11406C
:1013E000416001680A4A11400160016821F48021CE
:1013F0000160416821F4FE0141604FF41F018160EA
:101400000449C00308607047001002400000FFF864
:10141000FFFFF6FE08ED00E010B5406A0021C1852F
:10142000C184FFF7FAFD10BD0168CA6822F490720A
:10143000CA6001684A6922F001024A61202180F8ED
:101440003A10704710B590F83A10222901D00220C6
:1014500010BD8168B1F5805F11D001690029016874
:101460001FD0496801F07F03816A4A1C82620B70B9
:10147000C18D491E0904090CC18518D02BE00269F1
:10148000816A002A0268526805D0D2B20A80816A55
:10149000491C8162ECE7C2F308020A80816A891C58
:1014A000F7E74A68816A4B1C83620A70E0E70168CB
:1014B000CA6822F02002CA600168CA6822F48072F9
:1014C000CA6001684A6922F001024A61202180F85D
:1014D0003A10FFF791FE002010BD00002DE9F04109
:1014E000044600680169E26821F44051114301613A
:1014F0002169A0680843616908432168CA6841F20C
:101500000C639A430243CA6020684169A26921F4CE
:101510004071114341614C4920686425322688425C
:101520003CD1FFF78DFB00EBC00101EB00106168BF
:101530008900B0FBF1F7FFF783FB00EBC00101EB83
:1015400000106168B0468900B0FBF1F0B0FBF5F027
:101550006FF01801484307EB800106EB0110B0FB68
:10156000F5F000F0F006FFF76BFB00EBC00101EBBC
:10157000001061688900B0FBF1F0B0FBF5F006EBFC
:101580000016FFF75DFB00EBC00101EB0010616886
:101590008900B0FBF1F7FFF753FB3BE0FFF740FB9F
:1015A00000EBC00101EB001061688900B0FBF1F7AE
:1015B000FFF736FB00EBC00101EB00106168B0469D
:1015C0008900B0FBF1F0B0FBF5F06FF01801484373
:1015D00007EB800106EB0110B0FBF5F000F0F00620
:1015E000FFF71EFB00EBC00101EB001061688900F2
:1015F000B0FBF1F0B0FBF5F006EB0016FFF710FBC7
:1016000000EBC00101EB001061688900B0FBF1F74D
:10161000FFF706FB00EBC00101EB001061688900D9
:10162000B0FBF1F0B0FBF5F06FF01801484307EBA9
:10163000800108EB0110B0FBF5F0216800F00F000D
:1016400030448860BDE8F0810038014090F83910DE
:10165000212901D0022070478168B1F5805F016ABD
:101660000BD04A1C0262026809785160C18C491E85
:101670000904090CC1840ED017E009880268C1F37F
:101680000801516001690029016A02D0491C016208
:10169000ECE7891CFBE70168CA6822F08002CA6097
:1016A0000068C16841F04001C160002070472DE929
:1016B000F041984617460E460446069D1DE0681CFC
:1016C0001BD02DB1FFF736F9A0EB0800A84214D9C2
:1016D0002068C16821F4D071C1602068416921F09F
:1016E00001014161202084F8390084F83A0000208B
:1016F00084F838000320BDE8F0812068006836EAED
:10170000000004D00020B842D9D00020F3E7012027
:10171000F9E700000148FFF781BC000088010020C4
:1017200010B51044002303700A2308E0B1FBF3F462
:1017300003FB1414B1FBF3F1303400F8014D521ED9
:10174000D2B2F3D210BDFEE70FB41CB502460020A2
:1017500007AC00290BD0491ECDE90021054B6A4694
:101760002146069800F017F8009A002111701CBC61
:101770005DF814FB6D18000802E008C8121F08C1CC
:10178000002AFAD170477047002001E001C1121F02
:10179000002AFBD170472DE9F84F994692468846BA
:1017A0000546002706E025280AD051464A469047BC
:1017B0006D1C7F1C28780028F5D13846BDE8F88FCD
:1017C000002315F8011F18462E2915D115F8011F01
:1017D00004232A290DD06FF02F022978A1F13004BB
:1017E000092C09D800EB800002EB400008446D1C76
:1017F000F3E758F8040B6D1C2A78002ADDD0632A21
:1018000007D0732A0FD0104651464A4690477F1C96
:101810002AE018F8042B8DF8002000218DF8011023
:101820006E46012103E058F8046B4FF0FF315A0770
:101830004FF0000401D409E0641C84420BDA8C42AE
:10184000FADB325D002AF7D105E0641C8C42FCDB38
:10185000305D0028F9D1274404E016F8010B514609
:101860004A469047641EF8D26D1CA3E74A68002AD6
:1018700006D00A68531C0B6010704868401E486010
:101880007047000010B52820FEF7F6FE0B4C022131
:101890002046FFF745F850B95020FEF7EDFE022133
:1018A0002046FFF73DF810B10549012008700221DC
:1018B0002046FFF735F80028F9D110BD0008014097
:1018C00010000020FFF744F8FFF74DFDFFF7F4FC90
:1018D0005F485E49002501604FF4E131C0E9011520
:1018E0000C21C560C0E904518561C561FFF71EFC8C
:1018F00000B1FEE7FEF79EFEFEF742FDFEF78CFC10
:10190000FEF7A2FD534C01265148E5602561F030F9
:101910006561FEF765FC01287ED14E494C48C8310F
:10192000F030FEF711FC002874D14949052320222C
:10193000F0314748FFF761FC45482021F030FEF7C1
:10194000F8FB00F089F862E04249052320222831A3
:101950003F48FFF752FC3E490523202250313C48C6
:10196000FFF74BFCFEF7CEFCFEF756FCFEF784FDBE
:1019700037485030FEF71CFD4FF4FA70FEF7E0FEDA
:1019800042E060693349401C606105232022E83150
:101990002F48FFF732FC2E482021F030FEF7C9FB1C
:1019A000FEF752FD2A48F030FEF71AFC01281FD13D
:1019B00028492748A831F030FEF7C6FB0028244903
:1019C00023484FF005034FF0200201F1F0012FD022
:1019D000FFF713FC1F490523202268311C48FFF73D
:1019E0000CFC062060611A482021F030FEF7A1FBB4
:1019F0006069052808DD1749E66005232022483183
:101A000013482661FFF7F9FB20690028B9D0E06888
:101A1000002899D0202100E003E00D48F030FEF7C7
:101A200088FBFEF76FFCFEF7F7FBFEF70DFD6BE79B
:101A3000FFF7E3FB0420E660C4E9046005490523E1
:101A4000202288310248FFF7D8FBCCE7003801405C
:101A50008801002010000020FEB5FEF7CFFDFFF743
:101A600011FF00F0DFF8504C607000F0DBF8A07060
:101A700000F0D8F8E07000F0D5F8207100F0D2F84E
:101A8000E0802079E1780A2540EA01206081A17890
:101A9000627841EA0221B0FBF5F22181A261B0FB3C
:101AA000F5F205FB1202E261B1FBF5F22262B1FB35
:101AB000F5F205FB12116162B0FBF5F102223B4821
:101AC000FFF72EFE60890122B0FBF5F105FB110145
:101AD00036482030FFF724FE20890222B0FBF5F1C2
:101AE00032484030FFF71CFE20890122B0FBF5F19F
:101AF00005FB11012D486030FFF712FE60892B4C69
:101B0000A0F22D11203404F1200504F140066329D0
:101B100009D2052320222649A4F19000FFF76DFB8E
:101B2000224B24A21AE0B0F5967F21491F484FF0BE
:101B300005034FF0200201F12001A0F1700015D83B
:101B4000FFF75BFBFEF7DEFBFEF7A4FBFEF794FC62
:101B500017482030FEF752FC144B1EA213488DE8A4
:101B6000700020212038FFF7EFFDFEBDFFF745FB99
:101B7000FEF7C8FBFEF78EFBFEF77EFC0C4820301C
:101B8000FEF73CFC0A490948052320224031703801
:101B9000FFF733FB03B00548BDE8F040202115A254
:101BA0002038FFF7D1BD000010000020F801002010
:101BB00018010020433D25732E257326483D2573CB
:101BC0002E2573266D6F746F723D4F4E5F32620D1E
:101BD0000A000000433D25732E257326483D2573DA
:101BE0002E2573266D6F746F723D4F46465F3262CD
:101BF0000D0A0000433D4C6F695F68655F74686F54
:101C00006E6726483D4C6F695F68655F74686F6EEC
:101C100067266D6F746F723D4F46465F32620D0AE4
:101C2000000000002DE9F0410024144F012602219C
:101C30003846FEF775FE0028F9D02820FEF71CFD77
:101C400002213846FEF76CFE90B1C4F1070106FA96
:101C500001F02843C5B202213846FEF761FE002894
:101C6000F9D1641CE4B2082CE1D32846BDE8F08128
:101C7000C4F1070006FA00F08543ECE700080140D4
:101C80000448022101600021416081600146024850
:101C9000FEF768BDC8010020000801400448022189
:101CA0000122C0E90012C16001460248FEF75ABD98
:101CB000C8010020000801400000000000000000F2
:101CC00001020304060708090000000001020304E2
:101CD000F01C0008000000208801000088010008B6
:101CE000941D0008880100201005000088170008D6
:101CF0001A11017A22050229FF000E1364616E6732
:101D00002074727579656E0D0A2C6B686F211F68DF
:101D1000616E6820630BE925080A136368756F69B3
:101D2000206C6F693E210809154B455420544855D5
:101D3000431F110B166F6B1A61281D79657520639F
:101D4000617520736C61766520326120646F632059
:101D50006475206C6965753A1809636865636B2062
:101D60006C61841D616E20638DC950080B14626123
:101D70007420626F6D203262680A1D74201A4CDE76
:101D80000E116865207468FC41320182100400A2C3
:041D90004A04000001
:04000005080000ED02
:00000001FF
